{
  "contractName": "FlightSuretyData",
  "abi": [
    {
      "inputs": [
        {
          "name": "airlineAddress",
          "type": "address"
        }
      ],
      "payable": false,
      "stateMutability": "nonpayable",
      "type": "constructor",
      "signature": "constructor"
    },
    {
      "payable": true,
      "stateMutability": "payable",
      "type": "fallback"
    },
    {
      "anonymous": false,
      "inputs": [
        {
          "indexed": false,
          "name": "airlineAddress",
          "type": "address"
        },
        {
          "indexed": false,
          "name": "exist",
          "type": "bool"
        }
      ],
      "name": "AirlineExist",
      "type": "event",
      "signature": "0x4be7110ee0983b021bd112fa52df487b345848a71a9c9b1a377afc91061791e8"
    },
    {
      "anonymous": false,
      "inputs": [
        {
          "indexed": false,
          "name": "airlineAddress",
          "type": "address"
        },
        {
          "indexed": false,
          "name": "exist",
          "type": "bool"
        },
        {
          "indexed": false,
          "name": "registered",
          "type": "bool"
        }
      ],
      "name": "AirlineRegistered",
      "type": "event",
      "signature": "0x0a604b7c82f2e6152bdfa7fb694d8153a3e256ac4cad1ccc9f38ce60a5c1e7f3"
    },
    {
      "anonymous": false,
      "inputs": [
        {
          "indexed": false,
          "name": "airlineAddress",
          "type": "address"
        },
        {
          "indexed": false,
          "name": "exist",
          "type": "bool"
        },
        {
          "indexed": false,
          "name": "registered",
          "type": "bool"
        },
        {
          "indexed": false,
          "name": "funded",
          "type": "bool"
        },
        {
          "indexed": false,
          "name": "fundedCount",
          "type": "uint256"
        }
      ],
      "name": "AirlineFunded",
      "type": "event",
      "signature": "0x953ad823e45558aa0888ce45408ad3f585103cf94532de16a5f65655c41b3f67"
    },
    {
      "anonymous": false,
      "inputs": [
        {
          "indexed": false,
          "name": "votingAirlineAddress",
          "type": "address"
        },
        {
          "indexed": false,
          "name": "votedAirlineAddress",
          "type": "address"
        },
        {
          "indexed": false,
          "name": "startingVotesCount",
          "type": "uint256"
        },
        {
          "indexed": false,
          "name": "endingVotesCount",
          "type": "uint256"
        }
      ],
      "name": "AirlineVoted",
      "type": "event",
      "signature": "0x52a1c01e555a6991b960988d0b145c76361b6950a6af9b65889381d90d55c3e9"
    },
    {
      "anonymous": false,
      "inputs": [
        {
          "indexed": false,
          "name": "votesCount",
          "type": "uint256"
        }
      ],
      "name": "GetVotesCalled",
      "type": "event",
      "signature": "0xeefcb52ecd0aaae1fa62e249b3ca1d247f32b781f8e38d1f6640b51a390336c2"
    },
    {
      "anonymous": false,
      "inputs": [
        {
          "indexed": false,
          "name": "caller",
          "type": "address"
        }
      ],
      "name": "AuthorizedCallerCheck",
      "type": "event",
      "signature": "0xe02c6c22985eb1144f2b6c13af520f6ff6432f38c29b17842cf1b83777f993ae"
    },
    {
      "anonymous": false,
      "inputs": [
        {
          "indexed": false,
          "name": "caller",
          "type": "address"
        }
      ],
      "name": "AuthorizeCaller",
      "type": "event",
      "signature": "0xc4bcfb88e75b36f7b946fb0affb57e1f03fed8d0d5ddbe56b631d09c1188b283"
    },
    {
      "anonymous": false,
      "inputs": [
        {
          "indexed": false,
          "name": "amount",
          "type": "uint256"
        },
        {
          "indexed": false,
          "name": "to",
          "type": "address"
        }
      ],
      "name": "InsurancePaid",
      "type": "event",
      "signature": "0x2b437cda9d6887c88b2d4da4bb2f177b3a632cf56b0a4bdc6942932254b003f5"
    },
    {
      "anonymous": false,
      "inputs": [
        {
          "indexed": false,
          "name": "state",
          "type": "uint8"
        }
      ],
      "name": "InsuranceStateValue",
      "type": "event",
      "signature": "0xf0a829c59583f5f3c41ebf77e2b6117e6655083a49f1d1bbeed316ba4db3eb60"
    },
    {
      "constant": true,
      "inputs": [],
      "name": "isOperational",
      "outputs": [
        {
          "name": "",
          "type": "bool"
        }
      ],
      "payable": false,
      "stateMutability": "view",
      "type": "function",
      "signature": "0xcd905dff"
    },
    {
      "constant": false,
      "inputs": [
        {
          "name": "mode",
          "type": "bool"
        }
      ],
      "name": "setOperatingStatus",
      "outputs": [],
      "payable": false,
      "stateMutability": "nonpayable",
      "type": "function",
      "signature": "0x110466ed"
    },
    {
      "constant": false,
      "inputs": [
        {
          "name": "contractAddress",
          "type": "address"
        }
      ],
      "name": "authorizeCaller",
      "outputs": [],
      "payable": false,
      "stateMutability": "nonpayable",
      "type": "function",
      "signature": "0x2c388d5d"
    },
    {
      "constant": false,
      "inputs": [
        {
          "name": "contractAddress",
          "type": "address"
        }
      ],
      "name": "callerIsAuthorized",
      "outputs": [
        {
          "name": "",
          "type": "bool"
        }
      ],
      "payable": false,
      "stateMutability": "nonpayable",
      "type": "function",
      "signature": "0xda9a8360"
    },
    {
      "constant": false,
      "inputs": [
        {
          "name": "airlineAddress",
          "type": "address"
        },
        {
          "name": "registered",
          "type": "bool"
        }
      ],
      "name": "registerAirline",
      "outputs": [],
      "payable": false,
      "stateMutability": "nonpayable",
      "type": "function",
      "signature": "0x95386ae2"
    },
    {
      "constant": false,
      "inputs": [
        {
          "name": "airlineAddress",
          "type": "address"
        }
      ],
      "name": "setAirlineRegistered",
      "outputs": [],
      "payable": false,
      "stateMutability": "nonpayable",
      "type": "function",
      "signature": "0x373b0a2d"
    },
    {
      "constant": false,
      "inputs": [
        {
          "name": "votingAirlineAddress",
          "type": "address"
        },
        {
          "name": "airlineAddress",
          "type": "address"
        }
      ],
      "name": "voteForAirline",
      "outputs": [],
      "payable": false,
      "stateMutability": "nonpayable",
      "type": "function",
      "signature": "0xcc0e50d3"
    },
    {
      "constant": false,
      "inputs": [
        {
          "name": "airlineAddress",
          "type": "address"
        }
      ],
      "name": "getAirlineVotesCount",
      "outputs": [
        {
          "name": "",
          "type": "uint256"
        }
      ],
      "payable": false,
      "stateMutability": "nonpayable",
      "type": "function",
      "signature": "0x5c3487e6"
    },
    {
      "constant": false,
      "inputs": [
        {
          "name": "airlineAddress",
          "type": "address"
        },
        {
          "name": "flightKey",
          "type": "bytes32"
        }
      ],
      "name": "addFlightKeyToAirline",
      "outputs": [],
      "payable": false,
      "stateMutability": "nonpayable",
      "type": "function",
      "signature": "0x7e41c06e"
    },
    {
      "constant": false,
      "inputs": [
        {
          "name": "flightKey",
          "type": "bytes32"
        },
        {
          "name": "creditRate",
          "type": "uint8"
        }
      ],
      "name": "creditInsurees",
      "outputs": [],
      "payable": false,
      "stateMutability": "nonpayable",
      "type": "function",
      "signature": "0xfe828678"
    },
    {
      "constant": false,
      "inputs": [
        {
          "name": "airlineAddress",
          "type": "address"
        }
      ],
      "name": "fund",
      "outputs": [],
      "payable": true,
      "stateMutability": "payable",
      "type": "function",
      "signature": "0x23024408"
    },
    {
      "constant": true,
      "inputs": [
        {
          "name": "airlineAddress",
          "type": "address"
        }
      ],
      "name": "airlineExists",
      "outputs": [
        {
          "name": "",
          "type": "bool"
        }
      ],
      "payable": false,
      "stateMutability": "view",
      "type": "function",
      "signature": "0x65d35a2c"
    },
    {
      "constant": true,
      "inputs": [
        {
          "name": "airlineAddress",
          "type": "address"
        }
      ],
      "name": "airlineRegistered",
      "outputs": [
        {
          "name": "",
          "type": "bool"
        }
      ],
      "payable": false,
      "stateMutability": "view",
      "type": "function",
      "signature": "0x2ef49f30"
    },
    {
      "constant": true,
      "inputs": [
        {
          "name": "airlineAddress",
          "type": "address"
        }
      ],
      "name": "airlineFunded",
      "outputs": [
        {
          "name": "",
          "type": "bool"
        }
      ],
      "payable": false,
      "stateMutability": "view",
      "type": "function",
      "signature": "0x6a271d1f"
    },
    {
      "constant": true,
      "inputs": [],
      "name": "getFundedAirlinesCount",
      "outputs": [
        {
          "name": "",
          "type": "uint256"
        }
      ],
      "payable": false,
      "stateMutability": "view",
      "type": "function",
      "signature": "0xf839cdb0"
    },
    {
      "constant": true,
      "inputs": [],
      "name": "getRegisteredAirlinesCount",
      "outputs": [
        {
          "name": "",
          "type": "uint256"
        }
      ],
      "payable": false,
      "stateMutability": "view",
      "type": "function",
      "signature": "0xf77890ea"
    },
    {
      "constant": true,
      "inputs": [],
      "name": "getExistAirlinesCount",
      "outputs": [
        {
          "name": "",
          "type": "uint256"
        }
      ],
      "payable": false,
      "stateMutability": "view",
      "type": "function",
      "signature": "0xdfaa248b"
    },
    {
      "constant": true,
      "inputs": [],
      "name": "getMinimumRequireVotingCount",
      "outputs": [
        {
          "name": "",
          "type": "uint256"
        }
      ],
      "payable": false,
      "stateMutability": "view",
      "type": "function",
      "signature": "0x9d98a2b7"
    },
    {
      "constant": false,
      "inputs": [
        {
          "name": "airlineAddress",
          "type": "address"
        },
        {
          "name": "flightKey",
          "type": "bytes32"
        },
        {
          "name": "ticketNumber",
          "type": "uint256"
        }
      ],
      "name": "buildFlightInsurance",
      "outputs": [],
      "payable": false,
      "stateMutability": "nonpayable",
      "type": "function",
      "signature": "0x8422b3e8"
    },
    {
      "constant": false,
      "inputs": [
        {
          "name": "airlineAddress",
          "type": "address"
        }
      ],
      "name": "fetchAirlineData",
      "outputs": [
        {
          "name": "exists",
          "type": "bool"
        },
        {
          "name": "registered",
          "type": "bool"
        },
        {
          "name": "funded",
          "type": "bool"
        },
        {
          "name": "votesCount",
          "type": "uint256"
        },
        {
          "name": "flightKeys",
          "type": "bytes32[]"
        },
        {
          "name": "numberOfInsurance",
          "type": "uint256"
        }
      ],
      "payable": false,
      "stateMutability": "nonpayable",
      "type": "function",
      "signature": "0xa4053f1c"
    },
    {
      "constant": false,
      "inputs": [
        {
          "name": "insuranceKey",
          "type": "bytes32"
        }
      ],
      "name": "fetchInsuranceData",
      "outputs": [
        {
          "name": "buyer",
          "type": "address"
        },
        {
          "name": "airline",
          "type": "address"
        },
        {
          "name": "value",
          "type": "uint256"
        },
        {
          "name": "ticketNumber",
          "type": "uint256"
        },
        {
          "name": "state",
          "type": "uint8"
        }
      ],
      "payable": false,
      "stateMutability": "nonpayable",
      "type": "function",
      "signature": "0x18886d54"
    },
    {
      "constant": false,
      "inputs": [
        {
          "name": "passengerAddress",
          "type": "address"
        }
      ],
      "name": "fetchPasengerInsurances",
      "outputs": [
        {
          "name": "",
          "type": "bytes32[]"
        }
      ],
      "payable": false,
      "stateMutability": "nonpayable",
      "type": "function",
      "signature": "0x8345af40"
    },
    {
      "constant": false,
      "inputs": [
        {
          "name": "flightKey",
          "type": "bytes32"
        }
      ],
      "name": "fetchFlightInsurances",
      "outputs": [
        {
          "name": "",
          "type": "bytes32[]"
        }
      ],
      "payable": false,
      "stateMutability": "nonpayable",
      "type": "function",
      "signature": "0x69d0c394"
    },
    {
      "constant": false,
      "inputs": [
        {
          "name": "insuranceKey",
          "type": "bytes32"
        }
      ],
      "name": "payInsuree",
      "outputs": [],
      "payable": false,
      "stateMutability": "nonpayable",
      "type": "function",
      "signature": "0x859be33b"
    },
    {
      "constant": false,
      "inputs": [
        {
          "name": "buyer",
          "type": "address"
        },
        {
          "name": "insuranceKey",
          "type": "bytes32"
        }
      ],
      "name": "buyInsurance",
      "outputs": [],
      "payable": true,
      "stateMutability": "payable",
      "type": "function",
      "signature": "0xadf8ae7a"
    }
  ],
  "bytecode": "0x60806040526001600060146101000a81548160ff0219169083151502179055506000600555600060065560006007553480156200003b57600080fd5b5060405160208062003e9683398101806040528101908080519060200190929190505050336000806101000a81548173ffffffffffffffffffffffffffffffffffffffff021916908373ffffffffffffffffffffffffffffffffffffffff16021790555060c0604051908101604052806001151581526020016001151581526020016000151581526020016000604051908082528060200260200182016040528015620000f75781602001602082028038833980820191505090505b508152602001602060405190810160405280600081525081526020016000815250600860008373ffffffffffffffffffffffffffffffffffffffff1673ffffffffffffffffffffffffffffffffffffffff16815260200190815260200160002060008201518160000160006101000a81548160ff02191690831515021790555060208201518160000160016101000a81548160ff02191690831515021790555060408201518160000160026101000a81548160ff0219169083151502179055506060820151816001019080519060200190620001d59291906200044b565b5060808201518160020160008201518160000155505060a082015181600401559050506200021e60016005546200042e6401000000000262003753179091906401000000009004565b6005819055506200024a60016006546200042e6401000000000262003753179091906401000000009004565b6006819055507f4be7110ee0983b021bd112fa52df487b345848a71a9c9b1a377afc91061791e881600860008473ffffffffffffffffffffffffffffffffffffffff1673ffffffffffffffffffffffffffffffffffffffff16815260200190815260200160002060000160009054906101000a900460ff16604051808373ffffffffffffffffffffffffffffffffffffffff1673ffffffffffffffffffffffffffffffffffffffff168152602001821515151581526020019250505060405180910390a17f0a604b7c82f2e6152bdfa7fb694d8153a3e256ac4cad1ccc9f38ce60a5c1e7f381600860008473ffffffffffffffffffffffffffffffffffffffff1673ffffffffffffffffffffffffffffffffffffffff16815260200190815260200160002060000160009054906101000a900460ff16600860008573ffffffffffffffffffffffffffffffffffffffff1673ffffffffffffffffffffffffffffffffffffffff16815260200190815260200160002060000160019054906101000a900460ff16604051808473ffffffffffffffffffffffffffffffffffffffff1673ffffffffffffffffffffffffffffffffffffffff1681526020018315151515815260200182151515158152602001935050505060405180910390a150620004cb565b600081830190508281101515156200044257fe5b80905092915050565b82805482825590600052602060002090810192821562000490579160200282015b828111156200048f5782518290600019169055916020019190600101906200046c565b5b5090506200049f9190620004a3565b5090565b620004c891905b80821115620004c4576000816000905550600101620004aa565b5090565b90565b6139bb80620004db6000396000f300608060405260043610610149576000357c0100000000000000000000000000000000000000000000000000000000900463ffffffff168063110466ed1461015457806318886d5414610183578063230244081461024a5780632c388d5d146102805780632ef49f30146102c3578063373b0a2d1461031e5780635c3487e61461036157806365d35a2c146103b857806369d0c394146104135780636a271d1f146104995780637e41c06e146104f45780638345af40146105455780638422b3e8146105dd578063859be33b1461063857806395386ae2146106695780639d98a2b7146106b8578063a4053f1c146106e3578063adf8ae7a146107aa578063cc0e50d3146107ee578063cd905dff14610851578063da9a836014610880578063dfaa248b146108db578063f77890ea14610906578063f839cdb014610931578063fe8286781461095c575b6101523361099a565b005b34801561016057600080fd5b50610181600480360381019080803515159060200190929190505050610e92565b005b34801561018f57600080fd5b506101b26004803603810190808035600019169060200190929190505050610f73565b604051808673ffffffffffffffffffffffffffffffffffffffff1673ffffffffffffffffffffffffffffffffffffffff1681526020018573ffffffffffffffffffffffffffffffffffffffff1673ffffffffffffffffffffffffffffffffffffffff16815260200184815260200183815260200182600481111561023257fe5b60ff1681526020019550505050505060405180910390f35b61027e600480360381019080803573ffffffffffffffffffffffffffffffffffffffff16906020019092919050505061099a565b005b34801561028c57600080fd5b506102c1600480360381019080803573ffffffffffffffffffffffffffffffffffffffff1690602001909291905050506111d5565b005b3480156102cf57600080fd5b50610304600480360381019080803573ffffffffffffffffffffffffffffffffffffffff169060200190929190505050611400565b604051808215151515815260200191505060405180910390f35b34801561032a57600080fd5b5061035f600480360381019080803573ffffffffffffffffffffffffffffffffffffffff1690602001909291905050506114bd565b005b34801561036d57600080fd5b506103a2600480360381019080803573ffffffffffffffffffffffffffffffffffffffff1690602001909291905050506118d7565b6040518082815260200191505060405180910390f35b3480156103c457600080fd5b506103f9600480360381019080803573ffffffffffffffffffffffffffffffffffffffff169060200190929190505050611a4b565b604051808215151515815260200191505060405180910390f35b34801561041f57600080fd5b506104426004803603810190808035600019169060200190929190505050611aa4565b6040518080602001828103825283818151815260200191508051906020019060200280838360005b8381101561048557808201518184015260208101905061046a565b505050509050019250505060405180910390f35b3480156104a557600080fd5b506104da600480360381019080803573ffffffffffffffffffffffffffffffffffffffff169060200190929190505050611c2a565b604051808215151515815260200191505060405180910390f35b34801561050057600080fd5b50610543600480360381019080803573ffffffffffffffffffffffffffffffffffffffff1690602001909291908035600019169060200190929190505050611c83565b005b34801561055157600080fd5b50610586600480360381019080803573ffffffffffffffffffffffffffffffffffffffff169060200190929190505050611d5e565b6040518080602001828103825283818151815260200191508051906020019060200280838360005b838110156105c95780820151818401526020810190506105ae565b505050509050019250505060405180910390f35b3480156105e957600080fd5b50610636600480360381019080803573ffffffffffffffffffffffffffffffffffffffff169060200190929190803560001916906020019092919080359060200190929190505050611f08565b005b34801561064457600080fd5b506106676004803603810190808035600019169060200190929190505050612117565b005b34801561067557600080fd5b506106b6600480360381019080803573ffffffffffffffffffffffffffffffffffffffff169060200190929190803515159060200190929190505050612523565b005b3480156106c457600080fd5b506106cd612948565b6040518082815260200191505060405180910390f35b3480156106ef57600080fd5b50610724600480360381019080803573ffffffffffffffffffffffffffffffffffffffff169060200190929190505050612965565b6040518087151515158152602001861515151581526020018515151515815260200184815260200180602001838152602001828103825284818151815260200191508051906020019060200280838360005b83811015610791578082015181840152602081019050610776565b5050505090500197505050505050505060405180910390f35b6107ec600480360381019080803573ffffffffffffffffffffffffffffffffffffffff1690602001909291908035600019169060200190929190505050612cd0565b005b3480156107fa57600080fd5b5061084f600480360381019080803573ffffffffffffffffffffffffffffffffffffffff169060200190929190803573ffffffffffffffffffffffffffffffffffffffff169060200190929190505050612d93565b005b34801561085d57600080fd5b506108666132fd565b604051808215151515815260200191505060405180910390f35b34801561088c57600080fd5b506108c1600480360381019080803573ffffffffffffffffffffffffffffffffffffffff169060200190929190505050613313565b604051808215151515815260200191505060405180910390f35b3480156108e757600080fd5b506108f0613369565b6040518082815260200191505060405180910390f35b34801561091257600080fd5b5061091b61341c565b6040518082815260200191505060405180910390f35b34801561093d57600080fd5b506109466134cf565b6040518082815260200191505060405180910390f35b34801561096857600080fd5b506109986004803603810190808035600019169060200190929190803560ff169060200190929190505050613582565b005b600060149054906101000a900460ff161515610a44576040517f08c379a00000000000000000000000000000000000000000000000000000000081526004018080602001828103825260258152602001807f436f6e74726163742069732063757272656e746c79206e6f74206f706572617481526020017f696f6e616c00000000000000000000000000000000000000000000000000000081525060400191505060405180910390fd5b80600860008273ffffffffffffffffffffffffffffffffffffffff1673ffffffffffffffffffffffffffffffffffffffff16815260200190815260200160002060000160009054906101000a900460ff161515610b2f576040517f08c379a00000000000000000000000000000000000000000000000000000000081526004018080602001828103825260328152602001807f4169726c696e6520646f6573206e6f7420657869737420696e2072657175697281526020017f654169724c696e6552656769737465726564000000000000000000000000000081525060400191505060405180910390fd5b600860008273ffffffffffffffffffffffffffffffffffffffff1673ffffffffffffffffffffffffffffffffffffffff16815260200190815260200160002060000160019054906101000a900460ff161515610c19576040517f08c379a00000000000000000000000000000000000000000000000000000000081526004018080602001828103825260358152602001807f4169726c696e65206973206e6f74207265676973746572656420696e2072657181526020017f756972654169724c696e6552656769737465726564000000000000000000000081525060400191505060405180910390fd5b678ac7230489e800003410151515610c99576040517f08c379a000000000000000000000000000000000000000000000000000000000815260040180806020018281038252601c8152602001807f4e6f2073756666656369656e742066756e647320737570706c6965640000000081525060200191505060405180910390fd5b6001600860008473ffffffffffffffffffffffffffffffffffffffff1673ffffffffffffffffffffffffffffffffffffffff16815260200190815260200160002060000160026101000a81548160ff021916908315150217905550610d0a600160075461375390919063ffffffff16565b6007819055507f953ad823e45558aa0888ce45408ad3f585103cf94532de16a5f65655c41b3f6782600860008573ffffffffffffffffffffffffffffffffffffffff1673ffffffffffffffffffffffffffffffffffffffff16815260200190815260200160002060000160009054906101000a900460ff16600860008673ffffffffffffffffffffffffffffffffffffffff1673ffffffffffffffffffffffffffffffffffffffff16815260200190815260200160002060000160019054906101000a900460ff16600860008773ffffffffffffffffffffffffffffffffffffffff1673ffffffffffffffffffffffffffffffffffffffff16815260200190815260200160002060000160029054906101000a900460ff16600754604051808673ffffffffffffffffffffffffffffffffffffffff1673ffffffffffffffffffffffffffffffffffffffff1681526020018515151515815260200184151515158152602001831515151581526020018281526020019550505050505060405180910390a15050565b6000809054906101000a900473ffffffffffffffffffffffffffffffffffffffff1673ffffffffffffffffffffffffffffffffffffffff163373ffffffffffffffffffffffffffffffffffffffff16141515610f56576040517f08c379a000000000000000000000000000000000000000000000000000000000815260040180806020018281038252601c8152602001807f43616c6c6572206973206e6f7420636f6e7472616374206f776e65720000000081525060200191505060405180910390fd5b80600060146101000a81548160ff02191690831515021790555050565b6000806000806000610f83613859565b600060149054906101000a900460ff16151561102d576040517f08c379a00000000000000000000000000000000000000000000000000000000081526004018080602001828103825260258152602001807f436f6e74726163742069732063757272656e746c79206e6f74206f706572617481526020017f696f6e616c00000000000000000000000000000000000000000000000000000081525060400191505060405180910390fd5b337fe02c6c22985eb1144f2b6c13af520f6ff6432f38c29b17842cf1b83777f993ae81604051808273ffffffffffffffffffffffffffffffffffffffff1673ffffffffffffffffffffffffffffffffffffffff16815260200191505060405180910390a160026000896000191660001916815260200190815260200160002060a060405190810160405290816000820160009054906101000a900473ffffffffffffffffffffffffffffffffffffffff1673ffffffffffffffffffffffffffffffffffffffff1673ffffffffffffffffffffffffffffffffffffffff1681526020016001820160009054906101000a900473ffffffffffffffffffffffffffffffffffffffff1673ffffffffffffffffffffffffffffffffffffffff1673ffffffffffffffffffffffffffffffffffffffff16815260200160028201548152602001600382015481526020016004820160009054906101000a900460ff16600481111561119657fe5b60048111156111a157fe5b8152505091508160000151826020015183604001518460600151856080015196509650965096509650505091939590929450565b6000809054906101000a900473ffffffffffffffffffffffffffffffffffffffff1673ffffffffffffffffffffffffffffffffffffffff163373ffffffffffffffffffffffffffffffffffffffff16141515611299576040517f08c379a000000000000000000000000000000000000000000000000000000000815260040180806020018281038252601c8152602001807f43616c6c6572206973206e6f7420636f6e7472616374206f776e65720000000081525060200191505060405180910390fd5b600060149054906101000a900460ff161515611343576040517f08c379a00000000000000000000000000000000000000000000000000000000081526004018080602001828103825260258152602001807f436f6e74726163742069732063757272656e746c79206e6f74206f706572617481526020017f696f6e616c00000000000000000000000000000000000000000000000000000081525060400191505060405180910390fd5b60018060008373ffffffffffffffffffffffffffffffffffffffff1673ffffffffffffffffffffffffffffffffffffffff16815260200190815260200160002060006101000a81548160ff0219169083151502179055507fc4bcfb88e75b36f7b946fb0affb57e1f03fed8d0d5ddbe56b631d09c1188b28381604051808273ffffffffffffffffffffffffffffffffffffffff1673ffffffffffffffffffffffffffffffffffffffff16815260200191505060405180910390a150565b600080600860008473ffffffffffffffffffffffffffffffffffffffff1673ffffffffffffffffffffffffffffffffffffffff16815260200190815260200160002060000160009054906101000a900460ff16156114b257600860008473ffffffffffffffffffffffffffffffffffffffff1673ffffffffffffffffffffffffffffffffffffffff16815260200190815260200160002060000160019054906101000a900460ff1690508091506114b7565b600091505b50919050565b600060149054906101000a900460ff161515611567576040517f08c379a00000000000000000000000000000000000000000000000000000000081526004018080602001828103825260258152602001807f436f6e74726163742069732063757272656e746c79206e6f74206f706572617481526020017f696f6e616c00000000000000000000000000000000000000000000000000000081525060400191505060405180910390fd5b80600860008273ffffffffffffffffffffffffffffffffffffffff1673ffffffffffffffffffffffffffffffffffffffff16815260200190815260200160002060000160009054906101000a900460ff161515611652576040517f08c379a000000000000000000000000000000000000000000000000000000000815260040180806020018281038252602d8152602001807f4169726c696e6520646f6573206e6f7420657869737420696e2072657175697281526020017f654169724c696e6545786973740000000000000000000000000000000000000081525060400191505060405180910390fd5b60001515600860008473ffffffffffffffffffffffffffffffffffffffff1673ffffffffffffffffffffffffffffffffffffffff16815260200190815260200160002060000160019054906101000a900460ff161515141515611743576040517f08c379a00000000000000000000000000000000000000000000000000000000081526004018080602001828103825260358152602001807f4169726c696e6520697320616c7265616479207265676973746572656420696e81526020017f207365744169726c696e6552656769737465726564000000000000000000000081525060400191505060405180910390fd5b6001600860008473ffffffffffffffffffffffffffffffffffffffff1673ffffffffffffffffffffffffffffffffffffffff16815260200190815260200160002060000160016101000a81548160ff0219169083151502179055506117b4600160065461375390919063ffffffff16565b6006819055507f0a604b7c82f2e6152bdfa7fb694d8153a3e256ac4cad1ccc9f38ce60a5c1e7f382600860008573ffffffffffffffffffffffffffffffffffffffff1673ffffffffffffffffffffffffffffffffffffffff16815260200190815260200160002060000160009054906101000a900460ff16600860008673ffffffffffffffffffffffffffffffffffffffff1673ffffffffffffffffffffffffffffffffffffffff16815260200190815260200160002060000160019054906101000a900460ff16604051808473ffffffffffffffffffffffffffffffffffffffff1673ffffffffffffffffffffffffffffffffffffffff1681526020018315151515815260200182151515158152602001935050505060405180910390a15050565b60008060149054906101000a900460ff161515611982576040517f08c379a00000000000000000000000000000000000000000000000000000000081526004018080602001828103825260258152602001807f436f6e74726163742069732063757272656e746c79206e6f74206f706572617481526020017f696f6e616c00000000000000000000000000000000000000000000000000000081525060400191505060405180910390fd5b7feefcb52ecd0aaae1fa62e249b3ca1d247f32b781f8e38d1f6640b51a390336c2600860008473ffffffffffffffffffffffffffffffffffffffff1673ffffffffffffffffffffffffffffffffffffffff168152602001908152602001600020600201600001546040518082815260200191505060405180910390a1600860008373ffffffffffffffffffffffffffffffffffffffff1673ffffffffffffffffffffffffffffffffffffffff168152602001908152602001600020600201600001549050919050565b6000600860008373ffffffffffffffffffffffffffffffffffffffff1673ffffffffffffffffffffffffffffffffffffffff16815260200190815260200160002060000160009054906101000a900460ff169050919050565b6060600060149054906101000a900460ff161515611b50576040517f08c379a00000000000000000000000000000000000000000000000000000000081526004018080602001828103825260258152602001807f436f6e74726163742069732063757272656e746c79206e6f74206f706572617481526020017f696f6e616c00000000000000000000000000000000000000000000000000000081525060400191505060405180910390fd5b337fe02c6c22985eb1144f2b6c13af520f6ff6432f38c29b17842cf1b83777f993ae81604051808273ffffffffffffffffffffffffffffffffffffffff1673ffffffffffffffffffffffffffffffffffffffff16815260200191505060405180910390a1600360008460001916600019168152602001908152602001600020805480602002602001604051908101604052809291908181526020018280548015611c1d57602002820191906000526020600020905b81546000191681526020019060010190808311611c05575b5050505050915050919050565b6000600860008373ffffffffffffffffffffffffffffffffffffffff1673ffffffffffffffffffffffffffffffffffffffff16815260200190815260200160002060000160029054906101000a900460ff169050919050565b337fe02c6c22985eb1144f2b6c13af520f6ff6432f38c29b17842cf1b83777f993ae81604051808273ffffffffffffffffffffffffffffffffffffffff1673ffffffffffffffffffffffffffffffffffffffff16815260200191505060405180910390a1600860008473ffffffffffffffffffffffffffffffffffffffff1673ffffffffffffffffffffffffffffffffffffffff168152602001908152602001600020600101829080600181540180825580915050906001820390600052602060002001600090919290919091509060001916905550505050565b6060600060149054906101000a900460ff161515611e0a576040517f08c379a00000000000000000000000000000000000000000000000000000000081526004018080602001828103825260258152602001807f436f6e74726163742069732063757272656e746c79206e6f74206f706572617481526020017f696f6e616c00000000000000000000000000000000000000000000000000000081525060400191505060405180910390fd5b337fe02c6c22985eb1144f2b6c13af520f6ff6432f38c29b17842cf1b83777f993ae81604051808273ffffffffffffffffffffffffffffffffffffffff1673ffffffffffffffffffffffffffffffffffffffff16815260200191505060405180910390a1600460008473ffffffffffffffffffffffffffffffffffffffff1673ffffffffffffffffffffffffffffffffffffffff168152602001908152602001600020805480602002602001604051908101604052809291908181526020018280548015611efb57602002820191906000526020600020905b81546000191681526020019060010190808311611ee3575b5050505050915050919050565b6000337fe02c6c22985eb1144f2b6c13af520f6ff6432f38c29b17842cf1b83777f993ae81604051808273ffffffffffffffffffffffffffffffffffffffff1673ffffffffffffffffffffffffffffffffffffffff16815260200191505060405180910390a1611f78848461376f565b915060a060405190810160405280600073ffffffffffffffffffffffffffffffffffffffff1681526020018673ffffffffffffffffffffffffffffffffffffffff1681526020016000815260200184815260200160016004811115611fd957fe5b81525060026000846000191660001916815260200190815260200160002060008201518160000160006101000a81548173ffffffffffffffffffffffffffffffffffffffff021916908373ffffffffffffffffffffffffffffffffffffffff16021790555060208201518160010160006101000a81548173ffffffffffffffffffffffffffffffffffffffff021916908373ffffffffffffffffffffffffffffffffffffffff160217905550604082015181600201556060820151816003015560808201518160040160006101000a81548160ff021916908360048111156120bd57fe5b02179055509050506003600085600019166000191681526020019081526020016000208290806001815401808255809150509060018203906000526020600020016000909192909190915090600019169055505050505050565b61211f613859565b600080337fe02c6c22985eb1144f2b6c13af520f6ff6432f38c29b17842cf1b83777f993ae81604051808273ffffffffffffffffffffffffffffffffffffffff1673ffffffffffffffffffffffffffffffffffffffff16815260200191505060405180910390a160026000866000191660001916815260200190815260200160002060a060405190810160405290816000820160009054906101000a900473ffffffffffffffffffffffffffffffffffffffff1673ffffffffffffffffffffffffffffffffffffffff1673ffffffffffffffffffffffffffffffffffffffff1681526020016001820160009054906101000a900473ffffffffffffffffffffffffffffffffffffffff1673ffffffffffffffffffffffffffffffffffffffff1673ffffffffffffffffffffffffffffffffffffffff16815260200160028201548152602001600382015481526020016004820160009054906101000a900460ff16600481111561228b57fe5b600481111561229657fe5b815250509350600360048111156122a957fe5b846080015160048111156122b957fe5b14151561230a577ff0a829c59583f5f3c41ebf77e2b6117e6655083a49f1d1bbeed316ba4db3eb608460800151604051808260048111156122f657fe5b60ff16815260200191505060405180910390a15b6003600481111561231757fe5b8460800151600481111561232757fe5b14151561239c576040517f08c379a00000000000000000000000000000000000000000000000000000000081526004018080602001828103825260168152602001807f496e737572616e6365206973206e6f742076616c69640000000000000000000081525060200191505060405180910390fd5b83604001513073ffffffffffffffffffffffffffffffffffffffff163111151561242e576040517f08c379a000000000000000000000000000000000000000000000000000000000815260040180806020018281038252600f8152602001807f74727920616761696e206c61746572000000000000000000000000000000000081525060200191505060405180910390fd5b83604001519250600084604001818152505060048460800190600481111561245257fe5b9081600481111561245f57fe5b81525050836000015191508173ffffffffffffffffffffffffffffffffffffffff166108fc849081150290604051600060405180830381858888f193505050501580156124b0573d6000803e3d6000fd5b507f2b437cda9d6887c88b2d4da4bb2f177b3a632cf56b0a4bdc6942932254b003f58383604051808381526020018273ffffffffffffffffffffffffffffffffffffffff1673ffffffffffffffffffffffffffffffffffffffff1681526020019250505060405180910390a15050505050565b600060149054906101000a900460ff1615156125cd576040517f08c379a00000000000000000000000000000000000000000000000000000000081526004018080602001828103825260258152602001807f436f6e74726163742069732063757272656e746c79206e6f74206f706572617481526020017f696f6e616c00000000000000000000000000000000000000000000000000000081525060400191505060405180910390fd5b60c060405190810160405280600115158152602001821515815260200160001515815260200160006040519080825280602002602001820160405280156126235781602001602082028038833980820191505090505b508152602001602060405190810160405280600081525081526020016000815250600860008473ffffffffffffffffffffffffffffffffffffffff1673ffffffffffffffffffffffffffffffffffffffff16815260200190815260200160002060008201518160000160006101000a81548160ff02191690831515021790555060208201518160000160016101000a81548160ff02191690831515021790555060408201518160000160026101000a81548160ff02191690831515021790555060608201518160010190805190602001906126ff9291906138c0565b5060808201518160020160008201518160000155505060a08201518160040155905050612738600160055461375390919063ffffffff16565b60058190555060011515811515141561288557612761600160065461375390919063ffffffff16565b6006819055507f0a604b7c82f2e6152bdfa7fb694d8153a3e256ac4cad1ccc9f38ce60a5c1e7f382600860008573ffffffffffffffffffffffffffffffffffffffff1673ffffffffffffffffffffffffffffffffffffffff16815260200190815260200160002060000160009054906101000a900460ff16600860008673ffffffffffffffffffffffffffffffffffffffff1673ffffffffffffffffffffffffffffffffffffffff16815260200190815260200160002060000160019054906101000a900460ff16604051808473ffffffffffffffffffffffffffffffffffffffff1673ffffffffffffffffffffffffffffffffffffffff1681526020018315151515815260200182151515158152602001935050505060405180910390a1612944565b7f4be7110ee0983b021bd112fa52df487b345848a71a9c9b1a377afc91061791e882600860008573ffffffffffffffffffffffffffffffffffffffff1673ffffffffffffffffffffffffffffffffffffffff16815260200190815260200160002060000160009054906101000a900460ff16604051808373ffffffffffffffffffffffffffffffffffffffff1673ffffffffffffffffffffffffffffffffffffffff168152602001821515151581526020019250505060405180910390a15b5050565b6000612960600260065461380b90919063ffffffff16565b905090565b60008060008060606000612977613913565b600060149054906101000a900460ff161515612a21576040517f08c379a00000000000000000000000000000000000000000000000000000000081526004018080602001828103825260258152602001807f436f6e74726163742069732063757272656e746c79206e6f74206f706572617481526020017f696f6e616c00000000000000000000000000000000000000000000000000000081525060400191505060405180910390fd5b337fe02c6c22985eb1144f2b6c13af520f6ff6432f38c29b17842cf1b83777f993ae81604051808273ffffffffffffffffffffffffffffffffffffffff1673ffffffffffffffffffffffffffffffffffffffff16815260200191505060405180910390a188600860008273ffffffffffffffffffffffffffffffffffffffff1673ffffffffffffffffffffffffffffffffffffffff16815260200190815260200160002060000160009054906101000a900460ff161515612b70576040517f08c379a000000000000000000000000000000000000000000000000000000000815260040180806020018281038252602d8152602001807f4169726c696e6520646f6573206e6f7420657869737420696e2072657175697281526020017f654169724c696e6545786973740000000000000000000000000000000000000081525060400191505060405180910390fd5b600860008b73ffffffffffffffffffffffffffffffffffffffff1673ffffffffffffffffffffffffffffffffffffffff16815260200190815260200160002060c060405190810160405290816000820160009054906101000a900460ff161515151581526020016000820160019054906101000a900460ff161515151581526020016000820160029054906101000a900460ff1615151515815260200160018201805480602002602001604051908101604052809291908181526020018280548015612c5f57602002820191906000526020600020905b81546000191681526020019060010190808311612c47575b5050505050815260200160028201602060405190810160405290816000820154815250508152602001600482015481525050925082600001518360200151846040015185608001516000015186606001518760a0015181915098509850985098509850985050505091939550919395565b34600260008360001916600019168152602001908152602001600020600201819055508160026000836000191660001916815260200190815260200160002060000160006101000a81548173ffffffffffffffffffffffffffffffffffffffff021916908373ffffffffffffffffffffffffffffffffffffffff1602179055506002806000836000191660001916815260200190815260200160002060040160006101000a81548160ff02191690836004811115612d8a57fe5b02179055505050565b600080600060149054906101000a900460ff161515612e40576040517f08c379a00000000000000000000000000000000000000000000000000000000081526004018080602001828103825260258152602001807f436f6e74726163742069732063757272656e746c79206e6f74206f706572617481526020017f696f6e616c00000000000000000000000000000000000000000000000000000081525060400191505060405180910390fd5b60001515600860008573ffffffffffffffffffffffffffffffffffffffff1673ffffffffffffffffffffffffffffffffffffffff16815260200190815260200160002060020160010160008673ffffffffffffffffffffffffffffffffffffffff1673ffffffffffffffffffffffffffffffffffffffff16815260200190815260200160002060009054906101000a900460ff161515141515612f71576040517f08c379a00000000000000000000000000000000000000000000000000000000081526004018080602001828103825260278152602001807f4169726c696e6520616c726561647920766f74656420696e20766f7465466f7281526020017f4169726c696e650000000000000000000000000000000000000000000000000081525060400191505060405180910390fd5b6001600860008573ffffffffffffffffffffffffffffffffffffffff1673ffffffffffffffffffffffffffffffffffffffff16815260200190815260200160002060020160010160008673ffffffffffffffffffffffffffffffffffffffff1673ffffffffffffffffffffffffffffffffffffffff16815260200190815260200160002060006101000a81548160ff021916908315150217905550613015836118d7565b915060011515600860008573ffffffffffffffffffffffffffffffffffffffff1673ffffffffffffffffffffffffffffffffffffffff16815260200190815260200160002060020160010160008673ffffffffffffffffffffffffffffffffffffffff1673ffffffffffffffffffffffffffffffffffffffff16815260200190815260200160002060009054906101000a900460ff161515141515613148576040517f08c379a000000000000000000000000000000000000000000000000000000000815260040180806020018281038252602c8152602001807f566f746572207265636f726420776173206e6f7420736176656420696e20766f81526020017f7465466f724169726c696e65000000000000000000000000000000000000000081525060400191505060405180910390fd5b61315c60018361375390919063ffffffff16565b600860008573ffffffffffffffffffffffffffffffffffffffff1673ffffffffffffffffffffffffffffffffffffffff168152602001908152602001600020600201600001819055506131ae836118d7565b90506001820181141515613250576040517f08c379a000000000000000000000000000000000000000000000000000000000815260040180806020018281038252602b8152602001807f436f756e7420776173206e6f7420696e6372656d656e74656420696e20766f7481526020017f65466f724169726c696e6500000000000000000000000000000000000000000081525060400191505060405180910390fd5b7f52a1c01e555a6991b960988d0b145c76361b6950a6af9b65889381d90d55c3e984848484604051808573ffffffffffffffffffffffffffffffffffffffff1673ffffffffffffffffffffffffffffffffffffffff1681526020018473ffffffffffffffffffffffffffffffffffffffff1673ffffffffffffffffffffffffffffffffffffffff16815260200183815260200182815260200194505050505060405180910390a150505050565b60008060149054906101000a900460ff16905090565b6000600160008373ffffffffffffffffffffffffffffffffffffffff1673ffffffffffffffffffffffffffffffffffffffff16815260200190815260200160002060009054906101000a900460ff169050919050565b60008060149054906101000a900460ff161515613414576040517f08c379a00000000000000000000000000000000000000000000000000000000081526004018080602001828103825260258152602001807f436f6e74726163742069732063757272656e746c79206e6f74206f706572617481526020017f696f6e616c00000000000000000000000000000000000000000000000000000081525060400191505060405180910390fd5b600554905090565b60008060149054906101000a900460ff1615156134c7576040517f08c379a00000000000000000000000000000000000000000000000000000000081526004018080602001828103825260258152602001807f436f6e74726163742069732063757272656e746c79206e6f74206f706572617481526020017f696f6e616c00000000000000000000000000000000000000000000000000000081525060400191505060405180910390fd5b600654905090565b60008060149054906101000a900460ff16151561357a576040517f08c379a00000000000000000000000000000000000000000000000000000000081526004018080602001828103825260258152602001807f436f6e74726163742069732063757272656e746c79206e6f74206f706572617481526020017f696f6e616c00000000000000000000000000000000000000000000000000000081525060400191505060405180910390fd5b600754905090565b6000806000337fe02c6c22985eb1144f2b6c13af520f6ff6432f38c29b17842cf1b83777f993ae81604051808273ffffffffffffffffffffffffffffffffffffffff1673ffffffffffffffffffffffffffffffffffffffff16815260200191505060405180910390a16003600087600019166000191681526020019081526020016000209350600092505b838054905083101561374b5760026000858581548110151561362b57fe5b90600052602060002001546000191660001916815260200190815260200160002091506002600481111561365b57fe5b8260040160009054906101000a900460ff16600481111561367857fe5b1415613717576136ab606461369d8760ff16856002015461382190919063ffffffff16565b61380b90919063ffffffff16565b82600201819055506000826002015411156136eb5760038260040160006101000a81548160ff021916908360048111156136e157fe5b0217905550613712565b60048260040160006101000a81548160ff0219169083600481111561370c57fe5b02179055505b61373e565b60048260040160006101000a81548160ff0219169083600481111561373857fe5b02179055505b828060010193505061360d565b505050505050565b6000818301905082811015151561376657fe5b80905092915050565b60008282604051602001808360001916600019168152602001828152602001925050506040516020818303038152906040526040518082805190602001908083835b6020831015156137d657805182526020820191506020810190506020830392506137b1565b6001836020036101000a0380198251168184511680821785525050505050509050019150506040518091039020905092915050565b6000818381151561381857fe5b04905092915050565b6000808314156138345760009050613853565b818302905081838281151561384557fe5b0414151561384f57fe5b8090505b92915050565b60a060405190810160405280600073ffffffffffffffffffffffffffffffffffffffff168152602001600073ffffffffffffffffffffffffffffffffffffffff1681526020016000815260200160008152602001600060048111156138ba57fe5b81525090565b828054828255906000526020600020908101928215613902579160200282015b828111156139015782518290600019169055916020019190600101906138e0565b5b50905061390f9190613956565b5090565b60c0604051908101604052806000151581526020016000151581526020016000151581526020016060815260200161394961397b565b8152602001600081525090565b61397891905b8082111561397457600081600090555060010161395c565b5090565b90565b6020604051908101604052806000815250905600a165627a7a723058204e08a69f29dd344766932b360766a49046938454269a48af6487f5b8d0e3fae20029",
  "source": "pragma solidity ^0.4.25;\n\nimport \"../node_modules/openzeppelin-solidity/contracts/math/SafeMath.sol\";\n\ncontract FlightSuretyData {\n    using SafeMath for uint256;\n    using SafeMath for uint;\n\n    /********************************************************************************************/\n    /*                                       DATA VARIABLES                                     */\n    /********************************************************************************************/\n\n    address private contractOwner;                                      // Account used to deploy contract\n    bool private operational = true;                                    // Blocks all state changes throughout the contract if false\n\n    mapping (address=>bool) private authorizedCallers;\n\n    struct Airline{\n        bool exists;\n        bool registered;\n        bool funded;\n        bytes32[] flightKeys;\n        Votes votes;\n        uint numberOfInsurance;\n    }\n \n    struct Votes{\n        uint votersCount;\n        mapping(address => bool) voters;\n    }\n\n    struct Insurance {\n        address buyer;\n        address airline;\n        uint value;\n        uint ticketNumber;\n        InsuranceState state;\n    }\n\n    enum InsuranceState {\n        NotExist,\n        WaitingForBuyer,\n        Bought,\n        Passed,\n        Expired\n    }\n\n    mapping(bytes32 => Insurance) private insurances;\n    mapping(bytes32 => bytes32[]) private flightInsuranceKeys;\n    mapping(address => bytes32[]) private passengerInsuranceKeys;\n\n    uint private airlinesCount = 0;\n    uint private registeredAirlinesCount = 0;\n    uint private fundedAirlinesCount = 0;\n\n\n    mapping(address => Airline) private airlines;\n\n    event AirlineExist(address airlineAddress, bool exist);\n    event AirlineRegistered(address airlineAddress, bool exist, bool registered);\n    event AirlineFunded(address airlineAddress, bool exist, bool registered, bool funded, uint fundedCount);\n    event AirlineVoted(address votingAirlineAddress, address votedAirlineAddress, uint startingVotesCount, uint endingVotesCount);\n    event GetVotesCalled(uint votesCount);\n    event AuthorizedCallerCheck(address caller);\n    event AuthorizeCaller(address caller);\n    event InsurancePaid(uint amount, address to);\n    event InsuranceStateValue(InsuranceState state);\n    /********************************************************************************************/\n    /*                                       EVENT DEFINITIONS                                  */\n    /********************************************************************************************/\n\n\n    /**\n    * @dev Constructor\n    *      The deploying account becomes contractOwner\n    */\n    constructor\n    (\n        address airlineAddress\n        ) \n    public \n    {\n        contractOwner = msg.sender;\n        airlines[airlineAddress] = Airline({\n            exists:true,\n            registered:true, \n            funded: false,\n            flightKeys: new bytes32[](0),\n            votes: Votes(0),\n            numberOfInsurance:0\n\n            });\n\n        airlinesCount = airlinesCount.add(1);\n        registeredAirlinesCount = registeredAirlinesCount.add(1);\n        // fundedAirlinesCount = fundedAirlinesCount.add(1);\n        emit AirlineExist(airlineAddress,  airlines[airlineAddress].exists);\n        emit AirlineRegistered( airlineAddress,  airlines[airlineAddress].exists, airlines[airlineAddress].registered);\n        // emit AirlineFunded( airlineAddress,  airlines[airlineAddress].exists, airlines[airlineAddress].registered, airlines[airlineAddress].funded);\n\n    }\n\n    /********************************************************************************************/\n    /*                                       FUNCTION MODIFIERS                                 */\n    /********************************************************************************************/\n\n    // Modifiers help avoid duplication of code. They are typically used to validate something\n    // before a function is allowed to be executed.\n\n    /**\n    * @dev Modifier that requires the \"operational\" boolean variable to be \"true\"\n    *      This is used on all state changing functions to pause the contract in \n    *      the event there is an issue that needs to be fixed\n    */\n    modifier requireIsOperational() \n    {\n        require(operational, \"Contract is currently not operational\");\n        _;  // All modifiers require an \"_\" which indicates where the function body will be added\n    }\n\n    /**\n    * @dev Modifier that requires the \"ContractOwner\" account to be the function caller\n    */\n    modifier requireContractOwner()\n    {\n        require(msg.sender == contractOwner, \"Caller is not contract owner\");\n        _;\n    }\n\n    /**\n    * @dev Modifier that requires the airline address to be presend in airlines array\n    */\n    modifier requireAirLineExist(address airlineAddress) \n    {\n        require(airlines[airlineAddress].exists, \"Airline does not exist in requireAirLineExist\");\n        _;  // All modifiers require an \"_\" which indicates where the function body will be added\n    }\n\n    /**\n    * @dev Modifier that requires the airline address to be registered in airlines array\n    */\n    modifier requireAirLineRegistered(address airlineAddress) \n    {\n        require(airlines[airlineAddress].exists, \"Airline does not exist in requireAirLineRegistered\");\n        require(airlines[airlineAddress].registered, \"Airline is not registered in requireAirLineRegistered\");\n        _;  // All modifiers require an \"_\" which indicates where the function body will be added\n    }\n\n    /**\n    * @dev Modifier that requires the airline address to be funded in airlines array\n    */\n    modifier requireAirLineFunded(address airlineAddress) \n    {\n        require(airlines[airlineAddress].exists, \"Airline does not exist in requireAirLineFunded\");\n        require(airlines[airlineAddress].registered, \"Airline is not registered in requireAirLineFunded\");\n        require(airlines[airlineAddress].funded, \"Airline is not funded in requireAirLineFunded\");\n\n        _;  // All modifiers require an \"_\" which indicates where the function body will be added\n    }\n\n\n    modifier requireAuthorizedCaller(address contractAddress)\n    {\n        // require(authorizedCallers[contractAddress] == true, \"Not Authorized Caller\");\n        emit AuthorizedCallerCheck(contractAddress);\n        _;\n    }\n\n    /********************************************************************************************/\n    /*                                       UTILITY FUNCTIONS                                  */\n    /********************************************************************************************/\n\n    /**\n    * @dev Get operating status of contract\n    *\n    * @return A bool that is the current operating status\n    */      \n    function isOperational() \n    public \n    view \n    returns(bool) \n    {\n        return operational;\n    }\n\n\n    /**\n    * @dev Sets contract operations on/off\n    *\n    * When operational mode is disabled, all write transactions except for this one will fail\n    */ \n    function setOperatingStatus\n\n    (\n        bool mode\n        ) \n    public\n    requireContractOwner \n\n    {\n        operational = mode;\n    }\n\n\n    function authorizeCaller(address contractAddress)\n    public\n    requireContractOwner\n    requireIsOperational\n    {\n        authorizedCallers[contractAddress] = true;\n        emit AuthorizeCaller(contractAddress);\n    }\n\n    function callerIsAuthorized(address contractAddress)\n    public\n    returns(bool)\n    {\n        return authorizedCallers[contractAddress];\n    }\n\n    /********************************************************************************************/\n    /*                                     SMART CONTRACT FUNCTIONS                             */\n    /********************************************************************************************/\n\n   /**\n    * @dev Add an airline to the registration queue\n    *      Can only be called from FlightSuretyApp contract\n    *\n    */   \n    function registerAirline\n    (\n        address airlineAddress,\n        bool registered\n        )\n    requireIsOperational\n    public\n    {\n        airlines[airlineAddress] = Airline(\n        {\n            exists: true,\n            registered:registered, \n            funded:false,\n            flightKeys: new bytes32[](0),\n            votes: Votes(0),\n            numberOfInsurance:0\n            });\n        airlinesCount = airlinesCount.add(1);\n        if(registered == true){\n            registeredAirlinesCount = registeredAirlinesCount.add(1);\n            emit AirlineRegistered( airlineAddress,  airlines[airlineAddress].exists, airlines[airlineAddress].registered);\n        }\n        else{\n            emit AirlineExist(airlineAddress,  airlines[airlineAddress].exists);\n        }\n    }\n\n    function setAirlineRegistered(address airlineAddress)\n    requireIsOperational\n    requireAirLineExist(airlineAddress)\n    public\n    {\n        require(airlines[airlineAddress].registered == false , \"Airline is already registered in setAirlineRegistered\");\n        airlines[airlineAddress].registered = true;\n        registeredAirlinesCount = registeredAirlinesCount.add(1);\n        emit AirlineRegistered( airlineAddress,  airlines[airlineAddress].exists, airlines[airlineAddress].registered);\n\n    }\n\n\n /**\n    * @dev vote for an airline to be registered \n    *\n    */   \n    function voteForAirline\n    (\n        address votingAirlineAddress,\n        address airlineAddress\n        )\n    public\n    requireIsOperational\n    {\n        require(airlines[airlineAddress].votes.voters[votingAirlineAddress] == false, \"Airline already voted in voteForAirline\");\n        airlines[airlineAddress].votes.voters[votingAirlineAddress] = true;\n        uint startingVotes = getAirlineVotesCount(airlineAddress);\n\n        require(airlines[airlineAddress].votes.voters[votingAirlineAddress] == true, \"Voter record was not saved in voteForAirline\");\n        airlines[airlineAddress].votes.votersCount = startingVotes.add(1);\n        uint endingVotes = getAirlineVotesCount(airlineAddress);\n\n        require(endingVotes == startingVotes + 1, \"Count was not incremented in voteForAirline\");\n        emit AirlineVoted(votingAirlineAddress,  airlineAddress, startingVotes, endingVotes);\n\n    }\n\n    /**\n    * @dev vote for an airline to be registered \n    *\n    */  \n    function getAirlineVotesCount\n    (\n        address airlineAddress\n        )\n    public\n    requireIsOperational\n    returns(uint)\n    {\n        emit GetVotesCalled(airlines[airlineAddress].votes.votersCount);\n        return airlines[airlineAddress].votes.votersCount;\n\n    }\n\n\n    function addFlightKeyToAirline\n    (\n        address airlineAddress,\n        bytes32 flightKey\n        )\n    public\n    requireAuthorizedCaller(msg.sender)\n    {\n        airlines[airlineAddress].flightKeys.push(flightKey);\n    }\n\n    /**\n     *  @dev Credits payouts to insurees\n     */\n     function creditInsurees\n     (\n        bytes32 flightKey,\n        uint8 creditRate\n        )\n     public\n     requireAuthorizedCaller(msg.sender)\n     {\n        bytes32[] storage _insurancesKeys = flightInsuranceKeys[flightKey];\n\n        for (uint i = 0; i < _insurancesKeys.length; i++) {\n            Insurance storage _insurance = insurances[_insurancesKeys[i]];\n\n            if (_insurance.state == InsuranceState.Bought) {\n                _insurance.value = _insurance.value.mul(creditRate).div(100);\n                if (_insurance.value > 0)\n                _insurance.state = InsuranceState.Passed;\n                else\n                _insurance.state = InsuranceState.Expired;\n                } else {\n                    _insurance.state = InsuranceState.Expired;\n                }\n            }\n    }\n\n   /**\n    * @dev Initial funding for the insurance. Unless there are too many delayed flights\n    *      resulting in insurance payouts, the contract should be self-sustaining\n    *\n    */   \n    function fund\n    (address airlineAddress)\n    public\n    payable\n    requireIsOperational\n    requireAirLineRegistered(airlineAddress)\n    {\n        require(msg.value >= 10 ether, \"No suffecient funds supplied\");\n        airlines[airlineAddress].funded = true;\n        fundedAirlinesCount = fundedAirlinesCount.add(1);\n        emit AirlineFunded( airlineAddress,  airlines[airlineAddress].exists, airlines[airlineAddress].registered,  airlines[airlineAddress].funded, fundedAirlinesCount );\n\n    }\n\n    function getFlightKey\n    (\n        address airline,\n        string memory flight,\n        uint256 timestamp\n        )\n    pure\n    internal\n    returns(bytes32) \n    {\n        return keccak256(abi.encodePacked(airline, flight, timestamp));\n    }\n\n    /**\n    * @dev Fallback function for funding smart contract.\n    *\n    */\n    function() \n    public \n    payable \n    {\n        fund(msg.sender);\n    }\n\n\n    function airlineExists(address airlineAddress)\n    public\n    view\n    returns(bool)\n    {\n        return airlines[airlineAddress].exists;\n    }\n\n\n    function airlineRegistered(address airlineAddress)\n    public\n    view\n    returns(bool)\n    {\n        if (airlines[airlineAddress].exists){\n            bool registrationStatus = airlines[airlineAddress].registered;\n            return registrationStatus;\n        }\n        return false;\n    }\n\n    function airlineFunded(address airlineAddress)\n    public\n    view\n    returns(bool)\n    {\n        // require(airlines[airlineAddress].funded, \"Airline is not funded in airlineFunded\");\n        return airlines[airlineAddress].funded;\n    }\n\n    function getFundedAirlinesCount()\n    requireIsOperational\n    view\n    returns(uint)\n    {\n        return fundedAirlinesCount;\n    }\n\n    function getRegisteredAirlinesCount()\n    requireIsOperational\n    view\n    returns(uint)\n    {\n        return registeredAirlinesCount;\n    }\n\n\n    function getExistAirlinesCount()\n    requireIsOperational\n    view\n    returns(uint)\n    {\n        return airlinesCount;\n    }\n\n\n\n    function getMinimumRequireVotingCount()\n    view\n    returns(uint)\n    {\n        return registeredAirlinesCount.div(2);\n    }   \n\n\n    function getInsuranceKey\n    (\n        bytes32 flightKey,\n        uint ticketNumber\n\n        )\n    private\n    pure \n    returns(bytes32) \n    {\n        return keccak256(abi.encodePacked(flightKey, ticketNumber));\n    }\n\n\n    function buildFlightInsurance\n    (\n        address airlineAddress,\n        bytes32 flightKey,\n        uint ticketNumber\n        )\n    public\n    requireAuthorizedCaller(msg.sender)\n    {\n        bytes32 insuranceKey = getInsuranceKey(flightKey, ticketNumber);\n\n        insurances[insuranceKey] = Insurance({\n            buyer: address(0),\n            airline: airlineAddress,\n            value: 0,\n            ticketNumber: ticketNumber,\n            state: InsuranceState.WaitingForBuyer\n            });\n\n        flightInsuranceKeys[flightKey].push(insuranceKey);\n    }\n\n\n\n\n\n    // bool isExist,\n    // bool registered,\n    // bool funded,\n    // uint votesCount,\n    // bytes32[] memory flightKeys,\n    // uint numberOfInsurance\n\n\n    function fetchAirlineData(address airlineAddress)\n    public\n    \n    requireIsOperational\n    requireAuthorizedCaller(msg.sender)\n    requireAirLineExist(airlineAddress)\n    returns(\n        bool exists,\n        bool registered,\n        bool funded,\n        uint votesCount,\n        bytes32[] memory flightKeys,\n        uint numberOfInsurance\n        )\n    {\n        Airline memory _airline = airlines[airlineAddress];\n        return(\n            _airline.exists,\n            _airline.registered,\n            _airline.funded,\n            _airline.votes.votersCount,\n            _airline.flightKeys,\n            _airline.numberOfInsurance\n            );\n    }\n\n    function fetchInsuranceData(bytes32 insuranceKey)\n    public\n    \n    requireIsOperational\n    requireAuthorizedCaller(msg.sender)\n    returns(\n        address buyer,\n        address airline,\n        uint value,\n        uint ticketNumber,\n        InsuranceState state\n        )\n    {\n        Insurance memory _insurance = insurances[insuranceKey];\n        return(_insurance.buyer,\n            _insurance.airline,\n            _insurance.value,\n            _insurance.ticketNumber,\n            _insurance.state);\n    }\n\n\n\n\n    function fetchPasengerInsurances(address passengerAddress)\n    public\n    \n    requireIsOperational\n    requireAuthorizedCaller(msg.sender)\n    returns(bytes32[] memory)\n    {\n        return passengerInsuranceKeys[passengerAddress];\n    }\n\n    function fetchFlightInsurances(bytes32 flightKey)\n    public\n    \n    requireIsOperational\n    requireAuthorizedCaller(msg.sender)\n    returns(bytes32[] memory)\n    {\n        return flightInsuranceKeys[flightKey];\n    }\n\n    function payInsuree(bytes32 insuranceKey)\n    public\n    requireAuthorizedCaller(msg.sender)\n    {\n        Insurance memory _insurance = insurances[insuranceKey];\n        if (_insurance.state != InsuranceState.Passed){\n            emit InsuranceStateValue(_insurance.state);\n        }\n        require(_insurance.state == InsuranceState.Passed, \"Insurance is not valid\");\n        require(address(this).balance > _insurance.value, \"try again later\");\n\n        uint _value = _insurance.value;\n        _insurance.value = 0;\n        _insurance.state = InsuranceState.Expired;\n        address insuree = address(uint160(_insurance.buyer));\n        insuree.transfer(_value);\n        emit InsurancePaid(_value, insuree);\n    }\n\n    function buyInsurance\n    (\n        address  buyer,\n        bytes32 insuranceKey\n        )\n    public\n    payable\n    {\n        // require(insurances[insuranceKey].state == InsuranceState.WaitingForBuyer, \"Insurance allredy bought, or not exist or expired\");\n\n        insurances[insuranceKey].value = msg.value;\n        insurances[insuranceKey].buyer = buyer;\n        insurances[insuranceKey].state = InsuranceState.Bought;\n\n        //passengerInsuranceKeys[buyer].push(insuranceKey);\n    }\n}\n\n",
  "sourcePath": "/Users/kevin/Dropbox/works/dev/FlightSurety/contracts/FlightSuretyData.sol",
  "compiler": {
    "name": "solc",
    "version": "0.4.26+commit.4563c3fc.Emscripten.clang"
  },
  "schemaVersion": "3.0.6",
  "updatedAt": "2019-05-31T07:13:58.403Z",
  "devdoc": {
    "methods": {
      "creditInsurees(bytes32,uint8)": {
        "details": "Credits payouts to insurees"
      },
      "fund(address)": {
        "details": "Initial funding for the insurance. Unless there are too many delayed flights     resulting in insurance payouts, the contract should be self-sustaining    "
      },
      "getAirlineVotesCount(address)": {
        "details": "vote for an airline to be registered     "
      },
      "isOperational()": {
        "details": "Get operating status of contract",
        "return": "A bool that is the current operating status"
      },
      "registerAirline(address,bool)": {
        "details": "Add an airline to the registration queue     Can only be called from FlightSuretyApp contract    "
      },
      "setOperatingStatus(bool)": {
        "details": "Sets contract operations on/off    * When operational mode is disabled, all write transactions except for this one will fail"
      },
      "voteForAirline(address,address)": {
        "details": "vote for an airline to be registered     "
      }
    }
  },
  "userdoc": {
    "methods": {}
  }
}