{
  "contractName": "FlightSuretyApp",
  "abi": [
    {
      "constant": true,
      "inputs": [],
      "name": "REGISTRATION_FEE",
      "outputs": [
        {
          "name": "",
          "type": "uint256"
        }
      ],
      "payable": false,
      "stateMutability": "view",
      "type": "function",
      "signature": "0x64b4f751"
    },
    {
      "inputs": [
        {
          "name": "flightSuretyDataAddress",
          "type": "address"
        }
      ],
      "payable": false,
      "stateMutability": "nonpayable",
      "type": "constructor",
      "signature": "constructor"
    },
    {
      "anonymous": false,
      "inputs": [
        {
          "indexed": false,
          "name": "airlineAddress",
          "type": "address"
        },
        {
          "indexed": false,
          "name": "registered",
          "type": "bool"
        }
      ],
      "name": "AirlineSwitchToRegistered",
      "type": "event",
      "signature": "0xea6be2f80ae0633f76cc2e0beec4eef94902e99e055e5161bba54c0f6debe06d"
    },
    {
      "anonymous": false,
      "inputs": [
        {
          "indexed": false,
          "name": "airlineAddress",
          "type": "address"
        }
      ],
      "name": "AirlineAdded",
      "type": "event",
      "signature": "0xb55d65ff58a8ae5e1643396e49a8aa01aec7a0766f887812148a230464a41c8f"
    },
    {
      "anonymous": false,
      "inputs": [
        {
          "indexed": false,
          "name": "airlineAddress",
          "type": "address"
        }
      ],
      "name": "AirlineRegistered",
      "type": "event",
      "signature": "0x89a6354fb229eda6cbc28306798727b4d524818d2c375220bc3f360f24cffaca"
    },
    {
      "anonymous": false,
      "inputs": [
        {
          "indexed": false,
          "name": "airlineAddress",
          "type": "address"
        },
        {
          "indexed": false,
          "name": "a",
          "type": "uint256"
        },
        {
          "indexed": false,
          "name": "b",
          "type": "uint256"
        },
        {
          "indexed": false,
          "name": "c",
          "type": "bool"
        }
      ],
      "name": "AirlineNotRegistered",
      "type": "event",
      "signature": "0x0aefb36933bad2ae92cf535795e3f6c8cc99aa29a92e76eacabb0060797487e2"
    },
    {
      "anonymous": false,
      "inputs": [
        {
          "indexed": false,
          "name": "flightKey",
          "type": "bytes32"
        }
      ],
      "name": "FlightRegistered",
      "type": "event",
      "signature": "0xbc2e2465316fe44b06c0fb6f524b2edb5f66caa1ba5b1fe1e10ff178e8707e14"
    },
    {
      "anonymous": false,
      "inputs": [
        {
          "indexed": false,
          "name": "ticketsNumbers",
          "type": "uint256[]"
        },
        {
          "indexed": false,
          "name": "flightKey",
          "type": "bytes32"
        }
      ],
      "name": "FlightTicketsAdded",
      "type": "event",
      "signature": "0xc5b91770148b079d938f1bba18aef31cbc479a13483c1259272e62f08bf435d4"
    },
    {
      "anonymous": false,
      "inputs": [
        {
          "indexed": false,
          "name": "value",
          "type": "uint256"
        }
      ],
      "name": "CreditDrawed",
      "type": "event",
      "signature": "0x52ed95606e2d412311db921f9e25f6b133fbf3bdc0eb6851bd5ca0299b01cd94"
    },
    {
      "anonymous": false,
      "inputs": [
        {
          "indexed": false,
          "name": "insuranceKey",
          "type": "bytes32"
        }
      ],
      "name": "InsuranceBought",
      "type": "event",
      "signature": "0xbbf20781d31adbc294d0c8a04d4b1cb09a22f268bee044026c2fc95cf0be85aa"
    },
    {
      "anonymous": false,
      "inputs": [
        {
          "indexed": false,
          "name": "oracleaddress",
          "type": "address"
        },
        {
          "indexed": false,
          "name": "isRegistered",
          "type": "bool"
        }
      ],
      "name": "OracleRegistered",
      "type": "event",
      "signature": "0x301a07a9faf1d5a72fade916199e65b7e35aaa5c2d7d0c367cc5d0d3d5d0bdc2"
    },
    {
      "anonymous": false,
      "inputs": [
        {
          "indexed": false,
          "name": "airline",
          "type": "address"
        },
        {
          "indexed": false,
          "name": "flight",
          "type": "string"
        },
        {
          "indexed": false,
          "name": "timestamp",
          "type": "uint256"
        },
        {
          "indexed": false,
          "name": "status",
          "type": "uint8"
        }
      ],
      "name": "FlightStatusInfo",
      "type": "event",
      "signature": "0xe23f5229de535c091e3b7bec2665f5d698192d3b31393066e8987b7a05076b6c"
    },
    {
      "anonymous": false,
      "inputs": [
        {
          "indexed": false,
          "name": "airline",
          "type": "address"
        },
        {
          "indexed": false,
          "name": "flight",
          "type": "string"
        },
        {
          "indexed": false,
          "name": "timestamp",
          "type": "uint256"
        },
        {
          "indexed": false,
          "name": "status",
          "type": "uint8"
        }
      ],
      "name": "OracleReport",
      "type": "event",
      "signature": "0x43c853095c2752648493c88b4baac4d580d2594ffb00c6f1d4242d844514f783"
    },
    {
      "anonymous": false,
      "inputs": [
        {
          "indexed": false,
          "name": "index",
          "type": "uint8"
        },
        {
          "indexed": false,
          "name": "airline",
          "type": "address"
        },
        {
          "indexed": false,
          "name": "flight",
          "type": "string"
        },
        {
          "indexed": false,
          "name": "timestamp",
          "type": "uint256"
        }
      ],
      "name": "OracleRequest",
      "type": "event",
      "signature": "0x3ed01f2c3fc24c6b329d931e35b03e390d23497d22b3f90e15b600343e93df11"
    },
    {
      "constant": true,
      "inputs": [],
      "name": "isOperational",
      "outputs": [
        {
          "name": "",
          "type": "bool"
        }
      ],
      "payable": false,
      "stateMutability": "view",
      "type": "function",
      "signature": "0xcd905dff"
    },
    {
      "constant": false,
      "inputs": [
        {
          "name": "mode",
          "type": "bool"
        }
      ],
      "name": "setOperatingStatus",
      "outputs": [],
      "payable": false,
      "stateMutability": "nonpayable",
      "type": "function",
      "signature": "0x110466ed"
    },
    {
      "constant": false,
      "inputs": [
        {
          "name": "airlineAddress",
          "type": "address"
        }
      ],
      "name": "registerAirline",
      "outputs": [],
      "payable": false,
      "stateMutability": "nonpayable",
      "type": "function",
      "signature": "0xbdfd9877"
    },
    {
      "constant": false,
      "inputs": [
        {
          "name": "airlineAddress",
          "type": "address"
        }
      ],
      "name": "fundAirline",
      "outputs": [],
      "payable": true,
      "stateMutability": "payable",
      "type": "function",
      "signature": "0x6fbb8798"
    },
    {
      "constant": false,
      "inputs": [
        {
          "name": "airlineAddress",
          "type": "address"
        }
      ],
      "name": "voteForAirline",
      "outputs": [],
      "payable": false,
      "stateMutability": "nonpayable",
      "type": "function",
      "signature": "0xfbfa0c2e"
    },
    {
      "constant": false,
      "inputs": [
        {
          "name": "departure",
          "type": "uint256"
        },
        {
          "name": "ticketNumbers",
          "type": "uint256[]"
        },
        {
          "name": "flightName",
          "type": "string"
        }
      ],
      "name": "registerFlight",
      "outputs": [],
      "payable": false,
      "stateMutability": "nonpayable",
      "type": "function",
      "signature": "0xa41fc66c"
    },
    {
      "constant": false,
      "inputs": [
        {
          "name": "flightName",
          "type": "string"
        },
        {
          "name": "departure",
          "type": "uint256"
        },
        {
          "name": "ticketNumbers",
          "type": "uint256[]"
        }
      ],
      "name": "addFlightTickets",
      "outputs": [],
      "payable": false,
      "stateMutability": "nonpayable",
      "type": "function",
      "signature": "0x4245bb4a"
    },
    {
      "constant": false,
      "inputs": [
        {
          "name": "airline",
          "type": "address"
        },
        {
          "name": "flight",
          "type": "string"
        },
        {
          "name": "timestamp",
          "type": "uint256"
        }
      ],
      "name": "fetchFlightStatus",
      "outputs": [],
      "payable": false,
      "stateMutability": "nonpayable",
      "type": "function",
      "signature": "0xf83f11c0"
    },
    {
      "constant": true,
      "inputs": [
        {
          "name": "airlineAddress",
          "type": "address"
        }
      ],
      "name": "getAirline",
      "outputs": [
        {
          "name": "isExist",
          "type": "bool"
        },
        {
          "name": "registered",
          "type": "bool"
        },
        {
          "name": "funded",
          "type": "bool"
        },
        {
          "name": "votesCount",
          "type": "uint256"
        },
        {
          "name": "flightKeys",
          "type": "bytes32[]"
        },
        {
          "name": "numberOfInsurance",
          "type": "uint256"
        }
      ],
      "payable": false,
      "stateMutability": "view",
      "type": "function",
      "signature": "0xe1de0489"
    },
    {
      "constant": true,
      "inputs": [
        {
          "name": "airlineAddress",
          "type": "address"
        },
        {
          "name": "flightName",
          "type": "string"
        },
        {
          "name": "departureTime",
          "type": "uint256"
        }
      ],
      "name": "getFlight",
      "outputs": [
        {
          "name": "isRegistered",
          "type": "bool"
        },
        {
          "name": "name",
          "type": "string"
        },
        {
          "name": "departure",
          "type": "uint256"
        },
        {
          "name": "statusCode",
          "type": "uint8"
        },
        {
          "name": "updatedTimestamp",
          "type": "uint256"
        },
        {
          "name": "airline",
          "type": "address"
        }
      ],
      "payable": false,
      "stateMutability": "view",
      "type": "function",
      "signature": "0x53775a96"
    },
    {
      "constant": true,
      "inputs": [
        {
          "name": "airlineAddress",
          "type": "address"
        },
        {
          "name": "flightName",
          "type": "string"
        },
        {
          "name": "departureTime",
          "type": "uint256"
        },
        {
          "name": "_ticketNumber",
          "type": "uint256"
        }
      ],
      "name": "creditInsurees",
      "outputs": [
        {
          "name": "buyer",
          "type": "address"
        },
        {
          "name": "airline",
          "type": "address"
        },
        {
          "name": "value",
          "type": "uint256"
        },
        {
          "name": "ticketNumber",
          "type": "uint256"
        },
        {
          "name": "state",
          "type": "uint8"
        }
      ],
      "payable": false,
      "stateMutability": "view",
      "type": "function",
      "signature": "0xc0773a24"
    },
    {
      "constant": true,
      "inputs": [
        {
          "name": "airlineAddress",
          "type": "address"
        },
        {
          "name": "flightName",
          "type": "string"
        },
        {
          "name": "departureTime",
          "type": "uint256"
        },
        {
          "name": "_ticketNumber",
          "type": "uint256"
        }
      ],
      "name": "getInsurance",
      "outputs": [
        {
          "name": "buyer",
          "type": "address"
        },
        {
          "name": "airline",
          "type": "address"
        },
        {
          "name": "value",
          "type": "uint256"
        },
        {
          "name": "ticketNumber",
          "type": "uint256"
        },
        {
          "name": "state",
          "type": "uint8"
        }
      ],
      "payable": false,
      "stateMutability": "view",
      "type": "function",
      "signature": "0x8cee884a"
    },
    {
      "constant": true,
      "inputs": [
        {
          "name": "_address",
          "type": "address"
        }
      ],
      "name": "getInsuranceKeysOfPassanger",
      "outputs": [
        {
          "name": "",
          "type": "bytes32[]"
        }
      ],
      "payable": false,
      "stateMutability": "view",
      "type": "function",
      "signature": "0xfcfe206b"
    },
    {
      "constant": true,
      "inputs": [
        {
          "name": "airlineAddress",
          "type": "address"
        },
        {
          "name": "flightName",
          "type": "string"
        },
        {
          "name": "departureTime",
          "type": "uint256"
        }
      ],
      "name": "getInsuranceKeysOfFlight",
      "outputs": [
        {
          "name": "",
          "type": "bytes32[]"
        }
      ],
      "payable": false,
      "stateMutability": "view",
      "type": "function",
      "signature": "0xf3d4d0ee"
    },
    {
      "constant": false,
      "inputs": [
        {
          "name": "airlineAddress",
          "type": "address"
        },
        {
          "name": "flightName",
          "type": "string"
        },
        {
          "name": "departure",
          "type": "uint256"
        },
        {
          "name": "ticketNumber",
          "type": "uint256"
        }
      ],
      "name": "buyInsurance",
      "outputs": [],
      "payable": true,
      "stateMutability": "payable",
      "type": "function",
      "signature": "0x1b087d7a"
    },
    {
      "constant": false,
      "inputs": [
        {
          "name": "airlineAddress",
          "type": "address"
        },
        {
          "name": "flightName",
          "type": "string"
        },
        {
          "name": "departure",
          "type": "uint256"
        },
        {
          "name": "ticketNumber",
          "type": "uint256"
        }
      ],
      "name": "payInsurance",
      "outputs": [],
      "payable": false,
      "stateMutability": "nonpayable",
      "type": "function",
      "signature": "0x5d5c3f2d"
    },
    {
      "constant": false,
      "inputs": [],
      "name": "registerOracle",
      "outputs": [],
      "payable": true,
      "stateMutability": "payable",
      "type": "function",
      "signature": "0x339d2590"
    },
    {
      "constant": true,
      "inputs": [],
      "name": "getMyIndexes",
      "outputs": [
        {
          "name": "",
          "type": "uint8[3]"
        }
      ],
      "payable": false,
      "stateMutability": "view",
      "type": "function",
      "signature": "0x5f1cc0e6"
    },
    {
      "constant": false,
      "inputs": [
        {
          "name": "index",
          "type": "uint8"
        },
        {
          "name": "airline",
          "type": "address"
        },
        {
          "name": "flight",
          "type": "string"
        },
        {
          "name": "timestamp",
          "type": "uint256"
        },
        {
          "name": "statusCode",
          "type": "uint8"
        }
      ],
      "name": "submitOracleResponse",
      "outputs": [],
      "payable": false,
      "stateMutability": "nonpayable",
      "type": "function",
      "signature": "0xc10f2700"
    }
  ],
  "bytecode": "0x6080604052600460005560018060146101000a81548160ff0219169083151502179055506000600360146101000a81548160ff021916908360ff16021790555034801561004b57600080fd5b5060405160208061509a8339810180604052810190808051906020019092919050505033600160006101000a81548173ffffffffffffffffffffffffffffffffffffffff021916908373ffffffffffffffffffffffffffffffffffffffff16021790555080600360006101000a81548173ffffffffffffffffffffffffffffffffffffffff021916908373ffffffffffffffffffffffffffffffffffffffff16021790555050614f9a806101006000396000f300608060405260043610610112576000357c0100000000000000000000000000000000000000000000000000000000900463ffffffff168063110466ed146101175780631b087d7a14610146578063339d2590146101d65780634245bb4a146101e057806353775a96146102965780635d5c3f2d146103fb5780635f1cc0e61461049857806364b4f751146104eb5780636fbb8798146105165780638cee884a1461054c578063a41fc66c14610651578063bdfd987714610707578063c0773a241461074a578063c10f27001461087d578063cd905dff1461092a578063e1de048914610959578063f3d4d0ee14610a20578063f83f11c014610b08578063fbfa0c2e14610b9b578063fcfe206b14610bde575b600080fd5b34801561012357600080fd5b50610144600480360381019080803515159060200190929190505050610c76565b005b6101d4600480360381019080803573ffffffffffffffffffffffffffffffffffffffff169060200190929190803590602001908201803590602001908080601f01602080910402602001604051908101604052809392919081815260200183838082843782019150505050505091929192908035906020019092919080359060200190929190505050610d58565b005b6101de611069565b005b3480156101ec57600080fd5b50610294600480360381019080803590602001908201803590602001908080601f0160208091040260200160405190810160405280939291908181526020018383808284378201915050505050509192919290803590602001909291908035906020019082018035906020019080806020026020016040519081016040528093929190818152602001838360200280828437820191505050505050919291929050505061124f565b005b3480156102a257600080fd5b50610327600480360381019080803573ffffffffffffffffffffffffffffffffffffffff169060200190929190803590602001908201803590602001908080601f01602080910402602001604051908101604052809392919081815260200183838082843782019150505050505091929192908035906020019092919050505061170e565b6040518087151515158152602001806020018681526020018560ff1660ff1681526020018481526020018373ffffffffffffffffffffffffffffffffffffffff1673ffffffffffffffffffffffffffffffffffffffff168152602001828103825287818151815260200191508051906020019080838360005b838110156103bb5780820151818401526020810190506103a0565b50505050905090810190601f1680156103e85780820380516001836020036101000a031916815260200191505b5097505050505050505060405180910390f35b34801561040757600080fd5b50610496600480360381019080803573ffffffffffffffffffffffffffffffffffffffff169060200190929190803590602001908201803590602001908080601f016020809104026020016040519081016040528093929190818152602001838380828437820191505050505050919291929080359060200190929190803590602001909291905050506118cf565b005b3480156104a457600080fd5b506104ad611c30565b6040518082600360200280838360005b838110156104d85780820151818401526020810190506104bd565b5050505090500191505060405180910390f35b3480156104f757600080fd5b50610500611da5565b6040518082815260200191505060405180910390f35b61054a600480360381019080803573ffffffffffffffffffffffffffffffffffffffff169060200190929190505050611db1565b005b34801561055857600080fd5b506105b9600480360381019080803573ffffffffffffffffffffffffffffffffffffffff169060200190929190803590602001908201803590602001919091929391929390803590602001909291908035906020019092919050505061205f565b604051808673ffffffffffffffffffffffffffffffffffffffff1673ffffffffffffffffffffffffffffffffffffffff1681526020018573ffffffffffffffffffffffffffffffffffffffff1673ffffffffffffffffffffffffffffffffffffffff16815260200184815260200183815260200182600481111561063957fe5b60ff1681526020019550505050505060405180910390f35b34801561065d57600080fd5b506107056004803603810190808035906020019092919080359060200190820180359060200190808060200260200160405190810160405280939291908181526020018383602002808284378201915050505050509192919290803590602001908201803590602001908080601f01602080910402602001604051908101604052809392919081815260200183838082843782019150505050505091929192905050506121ca565b005b34801561071357600080fd5b50610748600480360381019080803573ffffffffffffffffffffffffffffffffffffffff1690602001909291905050506128ad565b005b34801561075657600080fd5b506107e5600480360381019080803573ffffffffffffffffffffffffffffffffffffffff169060200190929190803590602001908201803590602001908080601f01602080910402602001604051908101604052809392919081815260200183838082843782019150505050505091929192908035906020019092919080359060200190929190505050612e49565b604051808673ffffffffffffffffffffffffffffffffffffffff1673ffffffffffffffffffffffffffffffffffffffff1681526020018573ffffffffffffffffffffffffffffffffffffffff1673ffffffffffffffffffffffffffffffffffffffff16815260200184815260200183815260200182600481111561086557fe5b60ff1681526020019550505050505060405180910390f35b34801561088957600080fd5b50610928600480360381019080803560ff169060200190929190803573ffffffffffffffffffffffffffffffffffffffff169060200190929190803590602001908201803590602001908080601f016020809104026020016040519081016040528093929190818152602001838380828437820191505050505050919291929080359060200190929190803560ff169060200190929190505050612f80565b005b34801561093657600080fd5b5061093f613679565b604051808215151515815260200191505060405180910390f35b34801561096557600080fd5b5061099a600480360381019080803573ffffffffffffffffffffffffffffffffffffffff169060200190929190505050613690565b6040518087151515158152602001861515151581526020018515151515815260200184815260200180602001838152602001828103825284818151815260200191508051906020019060200280838360005b83811015610a075780820151818401526020810190506109ec565b5050505090500197505050505050505060405180910390f35b348015610a2c57600080fd5b50610ab1600480360381019080803573ffffffffffffffffffffffffffffffffffffffff169060200190929190803590602001908201803590602001908080601f016020809104026020016040519081016040528093929190818152602001838380828437820191505050505050919291929080359060200190929190505050613832565b6040518080602001828103825283818151815260200191508051906020019060200280838360005b83811015610af4578082015181840152602081019050610ad9565b505050509050019250505060405180910390f35b348015610b1457600080fd5b50610b99600480360381019080803573ffffffffffffffffffffffffffffffffffffffff169060200190929190803590602001908201803590602001908080601f016020809104026020016040519081016040528093929190818152602001838380828437820191505050505050919291929080359060200190929190505050613977565b005b348015610ba757600080fd5b50610bdc600480360381019080803573ffffffffffffffffffffffffffffffffffffffff169060200190929190505050613c71565b005b348015610bea57600080fd5b50610c1f600480360381019080803573ffffffffffffffffffffffffffffffffffffffff1690602001909291905050506145dd565b6040518080602001828103825283818151815260200191508051906020019060200280838360005b83811015610c62578082015181840152602081019050610c47565b505050509050019250505060405180910390f35b600160009054906101000a900473ffffffffffffffffffffffffffffffffffffffff1673ffffffffffffffffffffffffffffffffffffffff163373ffffffffffffffffffffffffffffffffffffffff16141515610d3b576040517f08c379a000000000000000000000000000000000000000000000000000000000815260040180806020018281038252601c8152602001807f43616c6c6572206973206e6f7420636f6e7472616374206f776e65720000000081525060200191505060405180910390fd5b80600160146101000a81548160ff02191690831515021790555050565b600080600160149054906101000a900460ff161515610e05576040517f08c379a00000000000000000000000000000000000000000000000000000000081526004018080602001828103825260258152602001807f436f6e74726163742069732063757272656e746c79206e6f74206f706572617481526020017f696f6e616c00000000000000000000000000000000000000000000000000000081525060400191505060405180910390fd5b600034111515610e7d576040517f08c379a00000000000000000000000000000000000000000000000000000000081526004018080602001828103825260208152602001807f496e737572616e63652063616e20616363657074206d6f7265207468616e203081525060200191505060405180910390fd5b670de0b6b3a76400003411151515610f23576040517f08c379a00000000000000000000000000000000000000000000000000000000081526004018080602001828103825260268152602001807f496e737572616e63652063616e20616363657074206c657373207468616e203181526020017f206574686572000000000000000000000000000000000000000000000000000081525060400191505060405180910390fd5b610f2e868686614734565b9150610f3a8284614859565b9050600360009054906101000a900473ffffffffffffffffffffffffffffffffffffffff1673ffffffffffffffffffffffffffffffffffffffff1663adf8ae7a3433846040518463ffffffff167c0100000000000000000000000000000000000000000000000000000000028152600401808373ffffffffffffffffffffffffffffffffffffffff1673ffffffffffffffffffffffffffffffffffffffff1681526020018260001916600019168152602001925050506000604051808303818588803b15801561100957600080fd5b505af115801561101d573d6000803e3d6000fd5b50505050507fbbf20781d31adbc294d0c8a04d4b1cb09a22f268bee044026c2fc95cf0be85aa8160405180826000191660001916815260200191505060405180910390a1505050505050565b611071614ddc565b678ac7230489e8000034101515156110f1576040517f08c379a000000000000000000000000000000000000000000000000000000000815260040180806020018281038252601c8152602001807f526567697374726174696f6e206665652069732072657175697265640000000081525060200191505060405180910390fd5b6110fa336148f5565b9050604080519081016040528060011515815260200182815250600460003373ffffffffffffffffffffffffffffffffffffffff1673ffffffffffffffffffffffffffffffffffffffff16815260200190815260200160002060008201518160000160006101000a81548160ff02191690831515021790555060208201518160010190600361118a929190614dff565b509050507f301a07a9faf1d5a72fade916199e65b7e35aaa5c2d7d0c367cc5d0d3d5d0bdc233600460003373ffffffffffffffffffffffffffffffffffffffff1673ffffffffffffffffffffffffffffffffffffffff16815260200190815260200160002060000160009054906101000a900460ff16604051808373ffffffffffffffffffffffffffffffffffffffff1673ffffffffffffffffffffffffffffffffffffffff168152602001821515151581526020019250505060405180910390a150565b600080600160149054906101000a900460ff1615156112fc576040517f08c379a00000000000000000000000000000000000000000000000000000000081526004018080602001828103825260258152602001807f436f6e74726163742069732063757272656e746c79206e6f74206f706572617481526020017f696f6e616c00000000000000000000000000000000000000000000000000000081525060400191505060405180910390fd5b33600360009054906101000a900473ffffffffffffffffffffffffffffffffffffffff1673ffffffffffffffffffffffffffffffffffffffff16636a271d1f826040518263ffffffff167c0100000000000000000000000000000000000000000000000000000000028152600401808273ffffffffffffffffffffffffffffffffffffffff1673ffffffffffffffffffffffffffffffffffffffff168152602001915050602060405180830381600087803b1580156113ba57600080fd5b505af11580156113ce573d6000803e3d6000fd5b505050506040513d60208110156113e457600080fd5b8101908080519060200190929190505050151561148f576040517f08c379a000000000000000000000000000000000000000000000000000000000815260040180806020018281038252602f8152602001807f4169726c696e65206973206e6f742066756e64656420696e207265717569726581526020017f497346756e6465644169724c696e65000000000000000000000000000000000081525060400191505060405180910390fd5b61149a338787614734565b925060026000846000191660001916815260200190815260200160002060000160009054906101000a900460ff16151561153c576040517f08c379a00000000000000000000000000000000000000000000000000000000081526004018080602001828103825260158152602001807f466c69676874206e6f742072656769737465726564000000000000000000000081525060200191505060405180910390fd5b600091505b835182101561165b57600360009054906101000a900473ffffffffffffffffffffffffffffffffffffffff1673ffffffffffffffffffffffffffffffffffffffff16638422b3e83385878681518110151561159857fe5b906020019060200201516040518463ffffffff167c0100000000000000000000000000000000000000000000000000000000028152600401808473ffffffffffffffffffffffffffffffffffffffff1673ffffffffffffffffffffffffffffffffffffffff16815260200183600019166000191681526020018281526020019350505050600060405180830381600087803b15801561163657600080fd5b505af115801561164a573d6000803e3d6000fd5b505050508180600101925050611541565b42600260008560001916600019168152602001908152602001600020600401819055507fc5b91770148b079d938f1bba18aef31cbc479a13483c1259272e62f08bf435d4848460405180806020018360001916600019168152602001828103825284818151815260200191508051906020019060200280838360005b838110156116f25780820151818401526020810190506116d7565b50505050905001935050505060405180910390a1505050505050565b6000606060008060008060006117258a8a8a614734565b905060026000826000191660001916815260200190815260200160002060000160009054906101000a900460ff166002600083600019166000191681526020019081526020016000206001016002600084600019166000191681526020019081526020016000206002015460026000856000191660001916815260200190815260200160002060030160009054906101000a900460ff166002600086600019166000191681526020019081526020016000206004015460026000876000191660001916815260200190815260200160002060050160009054906101000a900473ffffffffffffffffffffffffffffffffffffffff16848054600181600116156101000203166002900480601f0160208091040260200160405190810160405280929190818152602001828054600181600116156101000203166002900480156118af5780601f10611884576101008083540402835291602001916118af565b820191906000526020600020905b81548152906001019060200180831161189257829003601f168201915b505050505094509650965096509650965096505093975093979195509350565b600080600080600160149054906101000a900460ff16151561197f576040517f08c379a00000000000000000000000000000000000000000000000000000000081526004018080602001828103825260258152602001807f436f6e74726163742069732063757272656e746c79206e6f74206f706572617481526020017f696f6e616c00000000000000000000000000000000000000000000000000000081525060400191505060405180910390fd5b61198a888888614734565b93506119968486614859565b9250600360009054906101000a900473ffffffffffffffffffffffffffffffffffffffff1673ffffffffffffffffffffffffffffffffffffffff166318886d54846040518263ffffffff167c010000000000000000000000000000000000000000000000000000000002815260040180826000191660001916815260200191505060a060405180830381600087803b158015611a3157600080fd5b505af1158015611a45573d6000803e3d6000fd5b505050506040513d60a0811015611a5b57600080fd5b810190808051906020019092919080519060200190929190805190602001909291908051906020019092919080519060200190929190505050505092505091503373ffffffffffffffffffffffffffffffffffffffff168273ffffffffffffffffffffffffffffffffffffffff16141515611b3e576040517f08c379a000000000000000000000000000000000000000000000000000000000815260040180806020018281038252601d8152602001807f596f7520646f206e6f74206f776e207468697320696e737572616e636500000081525060200191505060405180910390fd5b600360009054906101000a900473ffffffffffffffffffffffffffffffffffffffff1673ffffffffffffffffffffffffffffffffffffffff1663859be33b846040518263ffffffff167c0100000000000000000000000000000000000000000000000000000000028152600401808260001916600019168152602001915050600060405180830381600087803b158015611bd757600080fd5b505af1158015611beb573d6000803e3d6000fd5b505050507f52ed95606e2d412311db921f9e25f6b133fbf3bdc0eb6851bd5ca0299b01cd94816040518082815260200191505060405180910390a15050505050505050565b611c38614ddc565b600460003373ffffffffffffffffffffffffffffffffffffffff1673ffffffffffffffffffffffffffffffffffffffff16815260200190815260200160002060000160009054906101000a900460ff161515611cfc576040517f08c379a000000000000000000000000000000000000000000000000000000000815260040180806020018281038252601b8152602001807f4e6f74207265676973746572656420617320616e206f7261636c65000000000081525060200191505060405180910390fd5b600460003373ffffffffffffffffffffffffffffffffffffffff1673ffffffffffffffffffffffffffffffffffffffff168152602001908152602001600020600101600380602002604051908101604052809291908260038015611d9b576020028201916000905b82829054906101000a900460ff1660ff1681526020019060010190602082600001049283019260010382029150808411611d645790505b5050505050905090565b678ac7230489e8000081565b600160149054906101000a900460ff161515611e5b576040517f08c379a00000000000000000000000000000000000000000000000000000000081526004018080602001828103825260258152602001807f436f6e74726163742069732063757272656e746c79206e6f74206f706572617481526020017f696f6e616c00000000000000000000000000000000000000000000000000000081525060400191505060405180910390fd5b8073ffffffffffffffffffffffffffffffffffffffff163373ffffffffffffffffffffffffffffffffffffffff16141515611efe576040517f08c379a00000000000000000000000000000000000000000000000000000000081526004018080602001828103825260208152602001807f4f6e6c7920746865206169726c696e652063616e2066756e6420697473656c6681525060200191505060405180910390fd5b678ac7230489e800003410151515611f7e576040517f08c379a000000000000000000000000000000000000000000000000000000000815260040180806020018281038252601a8152602001807f4e6f20656e6f7567682066756e64696e6720726563696576656400000000000081525060200191505060405180910390fd5b600360009054906101000a900473ffffffffffffffffffffffffffffffffffffffff1673ffffffffffffffffffffffffffffffffffffffff166323024408678ac7230489e80000836040518363ffffffff167c0100000000000000000000000000000000000000000000000000000000028152600401808273ffffffffffffffffffffffffffffffffffffffff1673ffffffffffffffffffffffffffffffffffffffff1681526020019150506000604051808303818588803b15801561204357600080fd5b505af1158015612057573d6000803e3d6000fd5b505050505050565b60008060008060008060006120a78c8c8c8080601f0160208091040260200160405190810160405280939291908181526020018383808284378201915050505050508b614734565b91506120b38289614859565b9050600360009054906101000a900473ffffffffffffffffffffffffffffffffffffffff1673ffffffffffffffffffffffffffffffffffffffff166318886d54826040518263ffffffff167c010000000000000000000000000000000000000000000000000000000002815260040180826000191660001916815260200191505060a060405180830381600087803b15801561214e57600080fd5b505af1158015612162573d6000803e3d6000fd5b505050506040513d60a081101561217857600080fd5b8101908080519060200190929190805190602001909291908051906020019092919080519060200190929190805190602001909291905050509650965096509650965050509550955095509550959050565b600080600160149054906101000a900460ff161515612277576040517f08c379a00000000000000000000000000000000000000000000000000000000081526004018080602001828103825260258152602001807f436f6e74726163742069732063757272656e746c79206e6f74206f706572617481526020017f696f6e616c00000000000000000000000000000000000000000000000000000081525060400191505060405180910390fd5b33600360009054906101000a900473ffffffffffffffffffffffffffffffffffffffff1673ffffffffffffffffffffffffffffffffffffffff16636a271d1f826040518263ffffffff167c0100000000000000000000000000000000000000000000000000000000028152600401808273ffffffffffffffffffffffffffffffffffffffff1673ffffffffffffffffffffffffffffffffffffffff168152602001915050602060405180830381600087803b15801561233557600080fd5b505af1158015612349573d6000803e3d6000fd5b505050506040513d602081101561235f57600080fd5b8101908080519060200190929190505050151561240a576040517f08c379a000000000000000000000000000000000000000000000000000000000815260040180806020018281038252602f8152602001807f4169726c696e65206973206e6f742066756e64656420696e207265717569726581526020017f497346756e6465644169724c696e65000000000000000000000000000000000081525060400191505060405180910390fd5b612415338588614734565b925060026000846000191660001916815260200190815260200160002060000160009054906101000a900460ff161515156124b8576040517f08c379a000000000000000000000000000000000000000000000000000000000815260040180806020018281038252601c8152602001807f466c6967687420697320616c726561647920726567697374657265640000000081525060200191505060405180910390fd5b60c060405190810160405280600115158152602001858152602001878152602001600060ff1681526020014281526020013373ffffffffffffffffffffffffffffffffffffffff1681525060026000856000191660001916815260200190815260200160002060008201518160000160006101000a81548160ff021916908315150217905550602082015181600101908051906020019061255a929190614e99565b506040820151816002015560608201518160030160006101000a81548160ff021916908360ff1602179055506080820151816004015560a08201518160050160006101000a81548173ffffffffffffffffffffffffffffffffffffffff021916908373ffffffffffffffffffffffffffffffffffffffff160217905550905050600360009054906101000a900473ffffffffffffffffffffffffffffffffffffffff1673ffffffffffffffffffffffffffffffffffffffff16637e41c06e33856040518363ffffffff167c0100000000000000000000000000000000000000000000000000000000028152600401808373ffffffffffffffffffffffffffffffffffffffff1673ffffffffffffffffffffffffffffffffffffffff168152602001826000191660001916815260200192505050600060405180830381600087803b1580156126a757600080fd5b505af11580156126bb573d6000803e3d6000fd5b50505050600091505b84518210156127de57600360009054906101000a900473ffffffffffffffffffffffffffffffffffffffff1673ffffffffffffffffffffffffffffffffffffffff16638422b3e83385888681518110151561271b57fe5b906020019060200201516040518463ffffffff167c0100000000000000000000000000000000000000000000000000000000028152600401808473ffffffffffffffffffffffffffffffffffffffff1673ffffffffffffffffffffffffffffffffffffffff16815260200183600019166000191681526020018281526020019350505050600060405180830381600087803b1580156127b957600080fd5b505af11580156127cd573d6000803e3d6000fd5b5050505081806001019250506126c4565b7fbc2e2465316fe44b06c0fb6f524b2edb5f66caa1ba5b1fe1e10ff178e8707e148360405180826000191660001916815260200191505060405180910390a17fc5b91770148b079d938f1bba18aef31cbc479a13483c1259272e62f08bf435d4858460405180806020018360001916600019168152602001828103825284818151815260200191508051906020019060200280838360005b83811015612891578082015181840152602081019050612876565b50505050905001935050505060405180910390a1505050505050565b600160149054906101000a900460ff161515612957576040517f08c379a00000000000000000000000000000000000000000000000000000000081526004018080602001828103825260258152602001807f436f6e74726163742069732063757272656e746c79206e6f74206f706572617481526020017f696f6e616c00000000000000000000000000000000000000000000000000000081525060400191505060405180910390fd5b33600360009054906101000a900473ffffffffffffffffffffffffffffffffffffffff1673ffffffffffffffffffffffffffffffffffffffff16636a271d1f826040518263ffffffff167c0100000000000000000000000000000000000000000000000000000000028152600401808273ffffffffffffffffffffffffffffffffffffffff1673ffffffffffffffffffffffffffffffffffffffff168152602001915050602060405180830381600087803b158015612a1557600080fd5b505af1158015612a29573d6000803e3d6000fd5b505050506040513d6020811015612a3f57600080fd5b81019080805190602001909291905050501515612aea576040517f08c379a000000000000000000000000000000000000000000000000000000000815260040180806020018281038252602f8152602001807f4169726c696e65206973206e6f742066756e64656420696e207265717569726581526020017f497346756e6465644169724c696e65000000000000000000000000000000000081525060400191505060405180910390fd5b600054600360009054906101000a900473ffffffffffffffffffffffffffffffffffffffff1673ffffffffffffffffffffffffffffffffffffffff1663f77890ea6040518163ffffffff167c0100000000000000000000000000000000000000000000000000000000028152600401602060405180830381600087803b158015612b7357600080fd5b505af1158015612b87573d6000803e3d6000fd5b505050506040513d6020811015612b9d57600080fd5b8101908080519060200190929190505050101515612cff57600360009054906101000a900473ffffffffffffffffffffffffffffffffffffffff1673ffffffffffffffffffffffffffffffffffffffff166395386ae28360006040518363ffffffff167c0100000000000000000000000000000000000000000000000000000000028152600401808373ffffffffffffffffffffffffffffffffffffffff1673ffffffffffffffffffffffffffffffffffffffff1681526020018215151515815260200192505050600060405180830381600087803b158015612c7f57600080fd5b505af1158015612c93573d6000803e3d6000fd5b505050507fb55d65ff58a8ae5e1643396e49a8aa01aec7a0766f887812148a230464a41c8f82604051808273ffffffffffffffffffffffffffffffffffffffff1673ffffffffffffffffffffffffffffffffffffffff16815260200191505060405180910390a1612e45565b600360009054906101000a900473ffffffffffffffffffffffffffffffffffffffff1673ffffffffffffffffffffffffffffffffffffffff166395386ae28360016040518363ffffffff167c0100000000000000000000000000000000000000000000000000000000028152600401808373ffffffffffffffffffffffffffffffffffffffff1673ffffffffffffffffffffffffffffffffffffffff1681526020018215151515815260200192505050600060405180830381600087803b158015612dc957600080fd5b505af1158015612ddd573d6000803e3d6000fd5b505050507f89a6354fb229eda6cbc28306798727b4d524818d2c375220bc3f360f24cffaca82604051808273ffffffffffffffffffffffffffffffffffffffff1673ffffffffffffffffffffffffffffffffffffffff16815260200191505060405180910390a15b5050565b6000806000806000806000612e5f8b8b8b614734565b9150612e6b8289614859565b9050600360009054906101000a900473ffffffffffffffffffffffffffffffffffffffff1673ffffffffffffffffffffffffffffffffffffffff166318886d54826040518263ffffffff167c010000000000000000000000000000000000000000000000000000000002815260040180826000191660001916815260200191505060a060405180830381600087803b158015612f0657600080fd5b505af1158015612f1a573d6000803e3d6000fd5b505050506040513d60a0811015612f3057600080fd5b810190808051906020019092919080519060200190929190805190602001909291908051906020019092919080519060200190929190505050965096509650965096505050945094509450945094565b60008560ff16600460003373ffffffffffffffffffffffffffffffffffffffff1673ffffffffffffffffffffffffffffffffffffffff1681526020019081526020016000206001016000600381101515612fd657fe5b602091828204019190069054906101000a900460ff1660ff16148061306557508560ff16600460003373ffffffffffffffffffffffffffffffffffffffff1673ffffffffffffffffffffffffffffffffffffffff168152602001908152602001600020600101600160038110151561304a57fe5b602091828204019190069054906101000a900460ff1660ff16145b806130da57508560ff16600460003373ffffffffffffffffffffffffffffffffffffffff1673ffffffffffffffffffffffffffffffffffffffff16815260200190815260200160002060010160026003811015156130bf57fe5b602091828204019190069054906101000a900460ff1660ff16145b1515613174576040517f08c379a00000000000000000000000000000000000000000000000000000000081526004018080602001828103825260238152602001807f496e64657820646f6573206e6f74206d61746368206f7261636c65207265717581526020017f657374000000000000000000000000000000000000000000000000000000000081525060400191505060405180910390fd5b85858585604051602001808560ff1660ff167f01000000000000000000000000000000000000000000000000000000000000000281526001018473ffffffffffffffffffffffffffffffffffffffff1673ffffffffffffffffffffffffffffffffffffffff166c0100000000000000000000000002815260140183805190602001908083835b60208310151561321f57805182526020820191506020810190506020830392506131fa565b6001836020036101000a0380198251168184511680821785525050505050509050018281526020019450505050506040516020818303038152906040526040518082805190602001908083835b602083101515613291578051825260208201915060208101905060208303925061326c565b6001836020036101000a0380198251168184511680821785525050505050509050019150506040518091039020905060056000826000191660001916815260200190815260200160002060000160149054906101000a900460ff161515613386576040517f08c379a000000000000000000000000000000000000000000000000000000000815260040180806020018281038252602f8152602001807f466c69676874206f722074696d657374616d7020646f206e6f74206d6174636881526020017f206f7261636c652072657175657374000000000000000000000000000000000081525060400191505060405180910390fd5b60056000826000191660001916815260200190815260200160002060010160008360ff1660ff1681526020019081526020016000203390806001815401808255809150509060018203906000526020600020016000909192909190916101000a81548173ffffffffffffffffffffffffffffffffffffffff021916908373ffffffffffffffffffffffffffffffffffffffff160217905550507f43c853095c2752648493c88b4baac4d580d2594ffb00c6f1d4242d844514f78385858585604051808573ffffffffffffffffffffffffffffffffffffffff1673ffffffffffffffffffffffffffffffffffffffff168152602001806020018481526020018360ff1660ff168152602001828103825285818151815260200191508051906020019080838360005b838110156134c85780820151818401526020810190506134ad565b50505050905090810190601f1680156134f55780820380516001836020036101000a031916815260200191505b509550505050505060405180910390a1600360056000836000191660001916815260200190815260200160002060010160008460ff1660ff1681526020019081526020016000208054905010151561367157600060056000836000191660001916815260200190815260200160002060000160146101000a81548160ff0219169083151502179055507fe23f5229de535c091e3b7bec2665f5d698192d3b31393066e8987b7a05076b6c85858585604051808573ffffffffffffffffffffffffffffffffffffffff1673ffffffffffffffffffffffffffffffffffffffff168152602001806020018481526020018360ff1660ff168152602001828103825285818151815260200191508051906020019080838360005b8381101561362757808201518184015260208101905061360c565b50505050905090810190601f1680156136545780820380516001836020036101000a031916815260200191505b509550505050505060405180910390a161367085858585614a9b565b5b505050505050565b6000600160149054906101000a900460ff16905090565b60008060008060606000600360009054906101000a900473ffffffffffffffffffffffffffffffffffffffff1673ffffffffffffffffffffffffffffffffffffffff1663a4053f1c886040518263ffffffff167c0100000000000000000000000000000000000000000000000000000000028152600401808273ffffffffffffffffffffffffffffffffffffffff1673ffffffffffffffffffffffffffffffffffffffff168152602001915050600060405180830381600087803b15801561375757600080fd5b505af115801561376b573d6000803e3d6000fd5b505050506040513d6000823e3d601f19601f8201168201806040525060c081101561379557600080fd5b810190808051906020019092919080519060200190929190805190602001909291908051906020019092919080516401000000008111156137d557600080fd5b828101905060208101848111156137eb57600080fd5b815185602082028301116401000000008211171561380857600080fd5b50509291906020018051906020019092919050505095509550955095509550955091939550919395565b60606000613841858585614734565b9050600360009054906101000a900473ffffffffffffffffffffffffffffffffffffffff1673ffffffffffffffffffffffffffffffffffffffff166369d0c394826040518263ffffffff167c0100000000000000000000000000000000000000000000000000000000028152600401808260001916600019168152602001915050600060405180830381600087803b1580156138dc57600080fd5b505af11580156138f0573d6000803e3d6000fd5b505050506040513d6000823e3d601f19601f82011682018060405250602081101561391a57600080fd5b81019080805164010000000081111561393257600080fd5b8281019050602081018481111561394857600080fd5b815185602082028301116401000000008211171561396557600080fd5b50509291905050509150509392505050565b60008061398333614c7a565b915081858585604051602001808560ff1660ff167f01000000000000000000000000000000000000000000000000000000000000000281526001018473ffffffffffffffffffffffffffffffffffffffff1673ffffffffffffffffffffffffffffffffffffffff166c0100000000000000000000000002815260140183805190602001908083835b602083101515613a305780518252602082019150602081019050602083039250613a0b565b6001836020036101000a0380198251168184511680821785525050505050509050018281526020019450505050506040516020818303038152906040526040518082805190602001908083835b602083101515613aa25780518252602082019150602081019050602083039250613a7d565b6001836020036101000a0380198251168184511680821785525050505050509050019150506040518091039020905060408051908101604052803373ffffffffffffffffffffffffffffffffffffffff1681526020016001151581525060056000836000191660001916815260200190815260200160002060008201518160000160006101000a81548173ffffffffffffffffffffffffffffffffffffffff021916908373ffffffffffffffffffffffffffffffffffffffff16021790555060208201518160000160146101000a81548160ff0219169083151502179055509050507f3ed01f2c3fc24c6b329d931e35b03e390d23497d22b3f90e15b600343e93df1182868686604051808560ff1660ff1681526020018473ffffffffffffffffffffffffffffffffffffffff1673ffffffffffffffffffffffffffffffffffffffff16815260200180602001838152602001828103825284818151815260200191508051906020019080838360005b83811015613c2d578082015181840152602081019050613c12565b50505050905090810190601f168015613c5a5780820380516001836020036101000a031916815260200191505b509550505050505060405180910390a15050505050565b6000806000600160149054906101000a900460ff161515613d20576040517f08c379a00000000000000000000000000000000000000000000000000000000081526004018080602001828103825260258152602001807f436f6e74726163742069732063757272656e746c79206e6f74206f706572617481526020017f696f6e616c00000000000000000000000000000000000000000000000000000081525060400191505060405180910390fd5b33600360009054906101000a900473ffffffffffffffffffffffffffffffffffffffff1673ffffffffffffffffffffffffffffffffffffffff16636a271d1f826040518263ffffffff167c0100000000000000000000000000000000000000000000000000000000028152600401808273ffffffffffffffffffffffffffffffffffffffff1673ffffffffffffffffffffffffffffffffffffffff168152602001915050602060405180830381600087803b158015613dde57600080fd5b505af1158015613df2573d6000803e3d6000fd5b505050506040513d6020811015613e0857600080fd5b81019080805190602001909291905050501515613eb3576040517f08c379a000000000000000000000000000000000000000000000000000000000815260040180806020018281038252602f8152602001807f4169726c696e65206973206e6f742066756e64656420696e207265717569726581526020017f497346756e6465644169724c696e65000000000000000000000000000000000081525060400191505060405180910390fd5b84600360009054906101000a900473ffffffffffffffffffffffffffffffffffffffff1673ffffffffffffffffffffffffffffffffffffffff166365d35a2c826040518263ffffffff167c0100000000000000000000000000000000000000000000000000000000028152600401808273ffffffffffffffffffffffffffffffffffffffff1673ffffffffffffffffffffffffffffffffffffffff168152602001915050602060405180830381600087803b158015613f7157600080fd5b505af1158015613f85573d6000803e3d6000fd5b505050506040513d6020811015613f9b57600080fd5b81019080805190602001909291905050501515614046576040517f08c379a000000000000000000000000000000000000000000000000000000000815260040180806020018281038252602a8152602001807f4169726c696e6520646f6573206e6f7420657869737420696e2072657175697281526020017f6549734169724c696e650000000000000000000000000000000000000000000081525060400191505060405180910390fd5b600360009054906101000a900473ffffffffffffffffffffffffffffffffffffffff1673ffffffffffffffffffffffffffffffffffffffff1663cc0e50d333886040518363ffffffff167c0100000000000000000000000000000000000000000000000000000000028152600401808373ffffffffffffffffffffffffffffffffffffffff1673ffffffffffffffffffffffffffffffffffffffff1681526020018273ffffffffffffffffffffffffffffffffffffffff1673ffffffffffffffffffffffffffffffffffffffff16815260200192505050600060405180830381600087803b15801561413757600080fd5b505af115801561414b573d6000803e3d6000fd5b50505050600360009054906101000a900473ffffffffffffffffffffffffffffffffffffffff1673ffffffffffffffffffffffffffffffffffffffff16635c3487e6876040518263ffffffff167c0100000000000000000000000000000000000000000000000000000000028152600401808273ffffffffffffffffffffffffffffffffffffffff1673ffffffffffffffffffffffffffffffffffffffff168152602001915050602060405180830381600087803b15801561420c57600080fd5b505af1158015614220573d6000803e3d6000fd5b505050506040513d602081101561423657600080fd5b81019080805190602001909291905050509450600360009054906101000a900473ffffffffffffffffffffffffffffffffffffffff1673ffffffffffffffffffffffffffffffffffffffff16639d98a2b76040518163ffffffff167c0100000000000000000000000000000000000000000000000000000000028152600401602060405180830381600087803b1580156142cf57600080fd5b505af11580156142e3573d6000803e3d6000fd5b505050506040513d60208110156142f957600080fd5b81019080805190602001909291905050509350600360009054906101000a900473ffffffffffffffffffffffffffffffffffffffff1673ffffffffffffffffffffffffffffffffffffffff16632ef49f30876040518263ffffffff167c0100000000000000000000000000000000000000000000000000000000028152600401808273ffffffffffffffffffffffffffffffffffffffff1673ffffffffffffffffffffffffffffffffffffffff168152602001915050602060405180830381600087803b1580156143c957600080fd5b505af11580156143dd573d6000803e3d6000fd5b505050506040513d60208110156143f357600080fd5b810190808051906020019092919050505092508385118015614413575082155b1561455557600360009054906101000a900473ffffffffffffffffffffffffffffffffffffffff1673ffffffffffffffffffffffffffffffffffffffff1663373b0a2d876040518263ffffffff167c0100000000000000000000000000000000000000000000000000000000028152600401808273ffffffffffffffffffffffffffffffffffffffff1673ffffffffffffffffffffffffffffffffffffffff168152602001915050600060405180830381600087803b1580156144d557600080fd5b505af11580156144e9573d6000803e3d6000fd5b505050507f89a6354fb229eda6cbc28306798727b4d524818d2c375220bc3f360f24cffaca86604051808273ffffffffffffffffffffffffffffffffffffffff1673ffffffffffffffffffffffffffffffffffffffff16815260200191505060405180910390a16145d5565b7f0aefb36933bad2ae92cf535795e3f6c8cc99aa29a92e76eacabb0060797487e286868686604051808573ffffffffffffffffffffffffffffffffffffffff1673ffffffffffffffffffffffffffffffffffffffff1681526020018481526020018381526020018215151515815260200194505050505060405180910390a15b505050505050565b6060600360009054906101000a900473ffffffffffffffffffffffffffffffffffffffff1673ffffffffffffffffffffffffffffffffffffffff16638345af40836040518263ffffffff167c0100000000000000000000000000000000000000000000000000000000028152600401808273ffffffffffffffffffffffffffffffffffffffff1673ffffffffffffffffffffffffffffffffffffffff168152602001915050600060405180830381600087803b15801561469c57600080fd5b505af11580156146b0573d6000803e3d6000fd5b505050506040513d6000823e3d601f19601f8201168201806040525060208110156146da57600080fd5b8101908080516401000000008111156146f257600080fd5b8281019050602081018481111561470857600080fd5b815185602082028301116401000000008211171561472557600080fd5b50509291905050509050919050565b6000838383604051602001808473ffffffffffffffffffffffffffffffffffffffff1673ffffffffffffffffffffffffffffffffffffffff166c0100000000000000000000000002815260140183805190602001908083835b6020831015156147b2578051825260208201915060208101905060208303925061478d565b6001836020036101000a03801982511681845116808217855250505050505090500182815260200193505050506040516020818303038152906040526040518082805190602001908083835b60208310151561482357805182526020820191506020810190506020830392506147fe565b6001836020036101000a038019825116818451168082178552505050505050905001915050604051809103902090509392505050565b60008282604051602001808360001916600019168152602001828152602001925050506040516020818303038152906040526040518082805190602001908083835b6020831015156148c0578051825260208201915060208101905060208303925061489b565b6001836020036101000a0380198251168184511680821785525050505050509050019150506040518091039020905092915050565b6148fd614ddc565b614905614ddc565b61490e83614c7a565b81600060038110151561491d57fe5b602002019060ff16908160ff168152505080600060038110151561493d57fe5b602002015181600160038110151561495157fe5b602002019060ff16908160ff16815250505b80600060038110151561497257fe5b602002015160ff1681600160038110151561498957fe5b602002015160ff1614156149c5576149a083614c7a565b8160016003811015156149af57fe5b602002019060ff16908160ff1681525050614963565b8060016003811015156149d457fe5b60200201518160026003811015156149e857fe5b602002019060ff16908160ff16815250505b806000600381101515614a0957fe5b602002015160ff16816002600381101515614a2057fe5b602002015160ff161480614a5f5750806001600381101515614a3e57fe5b602002015160ff16816002600381101515614a5557fe5b602002015160ff16145b15614a9257614a6d83614c7a565b816002600381101515614a7c57fe5b602002019060ff16908160ff16815250506149fa565b80915050919050565b6000614aa8858585614734565b90508160026000836000191660001916815260200190815260200160002060030160006101000a81548160ff021916908360ff160217905550601460ff168260ff161415614bb557600360009054906101000a900473ffffffffffffffffffffffffffffffffffffffff1673ffffffffffffffffffffffffffffffffffffffff1663fe8286788260966040518363ffffffff167c01000000000000000000000000000000000000000000000000000000000281526004018083600019166000191681526020018260ff1660ff16815260200192505050600060405180830381600087803b158015614b9857600080fd5b505af1158015614bac573d6000803e3d6000fd5b50505050614c73565b600360009054906101000a900473ffffffffffffffffffffffffffffffffffffffff1673ffffffffffffffffffffffffffffffffffffffff1663fe8286788260006040518363ffffffff167c01000000000000000000000000000000000000000000000000000000000281526004018083600019166000191681526020018260ff16815260200192505050600060405180830381600087803b158015614c5a57600080fd5b505af1158015614c6e573d6000803e3d6000fd5b505050505b5050505050565b6000806000600a91508160ff166003601481819054906101000a900460ff168092919060010191906101000a81548160ff021916908360ff16021790555060ff16430340856040516020018083600019166000191681526020018273ffffffffffffffffffffffffffffffffffffffff1673ffffffffffffffffffffffffffffffffffffffff166c01000000000000000000000000028152601401925050506040516020818303038152906040526040518082805190602001908083835b602083101515614d5d5780518252602082019150602081019050602083039250614d38565b6001836020036101000a038019825116818451168082178552505050505050905001915050604051809103902060019004811515614d9757fe5b06905060fa600360149054906101000a900460ff1660ff161115614dd2576000600360146101000a81548160ff021916908360ff1602179055505b8092505050919050565b606060405190810160405280600390602082028038833980820191505090505090565b826003601f01602090048101928215614e885791602002820160005b83821115614e5957835183826101000a81548160ff021916908360ff1602179055509260200192600101602081600001049283019260010302614e1b565b8015614e865782816101000a81549060ff0219169055600101602081600001049283019260010302614e59565b505b509050614e959190614f19565b5090565b828054600181600116156101000203166002900490600052602060002090601f016020900481019282601f10614eda57805160ff1916838001178555614f08565b82800160010185558215614f08579182015b82811115614f07578251825591602001919060010190614eec565b5b509050614f159190614f49565b5090565b614f4691905b80821115614f4257600081816101000a81549060ff021916905550600101614f1f565b5090565b90565b614f6b91905b80821115614f67576000816000905550600101614f4f565b5090565b905600a165627a7a72305820ab6557dcb22fa0f06136ac294a5226fe4e8dfe5b11140bfb33f495f77d35b37c0029",
  "source": "pragma solidity ^0.4.25;\n\n// It's important to avoid vulnerabilities due to numeric overflow bugs\n// OpenZeppelin's SafeMath library, when used correctly, protects agains such bugs\n// More info: https://www.nccgroup.trust/us/about-us/newsroom-and-events/blog/2018/november/smart-contract-insecurity-bad-arithmetic/\n\nimport \"../node_modules/openzeppelin-solidity/contracts/math/SafeMath.sol\";\n\nimport \"./FlightSuretyData.sol\";\n\n/************************************************** */\n/* FlightSurety Smart Contract                      */\n/************************************************** */\ncontract FlightSuretyApp {\n    using SafeMath for uint256; // Allow SafeMath functions to be called for all uint256 types (similar to \"prototype\" in Javascript)\n\n    /********************************************************************************************/\n    /*                                       DATA VARIABLES                                     */\n    /********************************************************************************************/\n\n    uint256 MinimumAirlinesCount = 4;\n\n    uint8 private constant CREDIT_RATE = 150;\n\n    // Flight status codees\n    uint8 private constant STATUS_CODE_UNKNOWN = 0;\n    uint8 private constant STATUS_CODE_ON_TIME = 10;\n    uint8 private constant STATUS_CODE_LATE_AIRLINE = 20;\n    uint8 private constant STATUS_CODE_LATE_WEATHER = 30;\n    uint8 private constant STATUS_CODE_LATE_TECHNICAL = 40;\n    uint8 private constant STATUS_CODE_LATE_OTHER = 50;\n\n    address private contractOwner;          // Account used to deploy contract\n\n    bool private operational = true;\n    struct Flight {\n        bool isRegistered;\n        string name;\n        uint256 departure;\n        uint8 statusCode;\n        uint256 updatedTimestamp;        \n        address airline;\n    }\n\n\n    mapping(bytes32 => Flight) private flights;\n\n    FlightSuretyData dataContract;\n\n\n\n    event AirlineSwitchToRegistered(address airlineAddress, bool registered);\n    event AirlineAdded(address airlineAddress);\n    event AirlineRegistered(address airlineAddress);\n    event AirlineNotRegistered(address airlineAddress, uint a, uint b, bool c);\n    event FlightRegistered(bytes32 flightKey);\n    event FlightTicketsAdded(uint[] ticketsNumbers, bytes32 flightKey);\n    event CreditDrawed(uint value);\n    event InsuranceBought(bytes32 insuranceKey);\n    event OracleRegistered(address oracleaddress, bool isRegistered);\n    /********************************************************************************************/\n    /*                                       FUNCTION MODIFIERS                                 */\n    /********************************************************************************************/\n\n    // Modifiers help avoid duplication of code. They are typically used to validate something\n    // before a function is allowed to be executed.\n\n    /**\n    * @dev Modifier that requires the \"operational\" boolean variable to be \"true\"\n    *      This is used on all state changing functions to pause the contract in \n    *      the event there is an issue that needs to be fixed\n    */\n    modifier requireIsOperational() \n    {\n         // Modify to call data contract's status\n         require(operational, \"Contract is currently not operational\");  \n        _;  // All modifiers require an \"_\" which indicates where the function body will be added\n    }\n\n    /**\n    * @dev Modifier that requires the \"ContractOwner\" account to be the function caller\n    */\n    modifier requireContractOwner()\n    {\n        require(msg.sender == contractOwner, \"Caller is not contract owner\");\n        _;\n    }\n\n\n    modifier requireIsAirLine(address airlineAddress)\n    {\n        require(dataContract.airlineExists(airlineAddress), \"Airline does not exist in requireIsAirLine\");\n        _;\n    }\n\n    modifier requireIsRegisteredAirLine(address airlineAddress)\n    {\n        require(dataContract.airlineRegistered(airlineAddress), \"Airline is not registered in requireIsRegisteredAirLine\");\n        _;\n    }\n\n    modifier requireIsFundedAirLine(address airlineAddress)\n    {\n        require(dataContract.airlineFunded(airlineAddress), \"Airline is not funded in requireIsFundedAirLine\");\n        _;\n    }\n    /********************************************************************************************/\n    /*                                       CONSTRUCTOR                                        */\n    /********************************************************************************************/\n\n    /**\n    * @dev Contract constructor\n    *\n    */\n    constructor\n    (address flightSuretyDataAddress\n        ) \n    public \n    {\n        contractOwner = msg.sender;\n        dataContract = FlightSuretyData(flightSuretyDataAddress);\n    }\n\n    /********************************************************************************************/\n    /*                                       UTILITY FUNCTIONS                                  */\n    /********************************************************************************************/\n\n    function isOperational() \n    public \n    view \n    returns(bool) \n    {\n        return operational;  // Modify to call data contract's status\n    }\n\n      /**\n    * @dev Sets contract operations on/off\n    *\n    * When operational mode is disabled, all write transactions except for this one will fail\n    */    \n    function setOperatingStatus\n    (\n        bool mode\n        ) \n    public\n    requireContractOwner \n    {\n        operational = mode;\n    }\n\n    /********************************************************************************************/\n    /*                                     SMART CONTRACT FUNCTIONS                             */\n    /********************************************************************************************/\n\n\n   /**\n    * @dev check airlines registration method\n    *\n    */   \n    // function airlineRegistrationNeedsVoting()\n    // public\n    // returns(bool)\n    // {\n    //     return dataContract.getFundedAirlinesCount > 4;\n    // }\n\n\n\n   /**\n    * @dev Add an airline to the registration queue\n    *\n    */   \n    function registerAirline\n    (   \n        address airlineAddress\n        )\n    public\n    requireIsOperational\n    requireIsFundedAirLine(msg.sender)\n    {\n        // bool needsVoting = airlineRegistrationNeedsVoting();\n        if ( dataContract.getRegisteredAirlinesCount() >= MinimumAirlinesCount){\n            dataContract.registerAirline(airlineAddress, false);\n            emit AirlineAdded(airlineAddress);\n        }\n        else{\n            dataContract.registerAirline(airlineAddress, true);\n            emit AirlineRegistered(airlineAddress);\n        }\n    }\n\n\n\n   /**\n    * @dev Add an airline to the registration queue\n    *\n    */   \n    function fundAirline\n    (\n        address airlineAddress\n        )\n    public\n    payable\n    requireIsOperational\n    {\n        require(msg.sender == airlineAddress, \"Only the airline can fund itself\");\n        require(msg.value >= REGISTRATION_FEE, \"No enough funding recieved\");\n        dataContract.fund.value(10 ether)(airlineAddress);\n    }\n\n\n   /**\n    * @dev vote for an airline to be registered \n    *\n    */   \n    function voteForAirline\n    (\n        address airlineAddress\n        )\n    public\n    requireIsOperational\n    requireIsFundedAirLine(msg.sender)\n    requireIsAirLine(airlineAddress)\n    {\n        dataContract.voteForAirline(msg.sender, airlineAddress);\n        uint voteCount = dataContract.getAirlineVotesCount(airlineAddress);\n        uint minimumRequireVotingCount = dataContract.getMinimumRequireVotingCount();\n        bool registrationStatus = dataContract.airlineRegistered(airlineAddress);\n        if ( voteCount > minimumRequireVotingCount && !registrationStatus){\n            dataContract.setAirlineRegistered(airlineAddress);\n            emit AirlineRegistered(airlineAddress);\n        }\n        else{\n            //for testing purposes\n            emit AirlineNotRegistered(airlineAddress, voteCount, minimumRequireVotingCount, registrationStatus);\n        }\n    }\n\n\n\n   /**\n    * @dev Register a future flight for insuring.\n    *\n    */  \n    function registerFlight\n    (\n        uint256 departure,\n        uint256[] ticketNumbers,\n        string flightName\n        )\n    public\n    requireIsOperational\n    requireIsFundedAirLine(msg.sender)\n    {\n        bytes32 flightKey = getFlightKey(msg.sender, flightName, departure);\n        require(!flights[flightKey].isRegistered, \"Flight is already registered\");\n\n        flights[flightKey] = Flight ({\n            isRegistered: true,\n            name: flightName,\n            departure: departure,\n            statusCode: 0,\n            updatedTimestamp: now,\n            airline: msg.sender\n            });\n\n        dataContract.addFlightKeyToAirline(msg.sender, flightKey);\n\n        for (uint i = 0; i < ticketNumbers.length; i++) {\n            dataContract.buildFlightInsurance(msg.sender, flightKey, ticketNumbers[i]);\n        }\n\n        emit FlightRegistered(flightKey);\n        emit FlightTicketsAdded(ticketNumbers, flightKey);\n    }\n    \n\n\n    function addFlightTickets\n    (\n        string flightName,\n        uint256 departure,\n        uint256[] ticketNumbers\n        )\n    public\n    requireIsOperational\n    requireIsFundedAirLine(msg.sender)\n    {\n        bytes32 flightKey = getFlightKey(msg.sender, flightName, departure);\n        require(flights[flightKey].isRegistered, \"Flight not registered\");\n        for (uint i = 0; i < ticketNumbers.length; i++) {\n            dataContract.buildFlightInsurance(msg.sender, flightKey, ticketNumbers[i]);\n        }\n\n        flights[flightKey].updatedTimestamp = now;\n\n        emit FlightTicketsAdded(ticketNumbers, flightKey);\n    }\n\n\n\n\n   /**\n    * @dev Called after oracle has updated flight status\n    *\n    */  \n    function processFlightStatus\n    (\n        address airline,\n        string memory flight,\n        uint256 timestamp,\n        uint8 statusCode\n        )\n    internal\n    \n    {\n        bytes32 flightKey = getFlightKey(airline, flight, timestamp);\n        flights[flightKey].statusCode = statusCode;\n//|| statusCode == STATUS_CODE_LATE_WEATHER || statusCode == STATUS_CODE_LATE_OTHER || statusCode == STATUS_CODE_LATE_TECHNICAL\nif (statusCode == STATUS_CODE_LATE_AIRLINE ){\n    dataContract.creditInsurees(flightKey, CREDIT_RATE);\n}\nelse{\n    dataContract.creditInsurees(flightKey, 0);\n}\n\n}\n\n\n    // Generate a request for oracles to fetch flight information\n    function fetchFlightStatus\n    (\n        address airline,\n        string flight,\n        uint256 timestamp                            \n        )\n    public\n    {\n        uint8 index = getRandomIndex(msg.sender);\n\n        // Generate a unique key for storing the request\n        bytes32 key = keccak256(abi.encodePacked(index, airline, flight, timestamp));\n        oracleResponses[key] = ResponseInfo({\n            requester: msg.sender,\n            isOpen: true\n            });\n\n        emit OracleRequest(index, airline, flight, timestamp);\n    }\n\n\n    function getAirline(address airlineAddress)\n    public\n    view\n    returns(\n        bool isExist,\n        bool registered,\n        bool funded,\n        uint votesCount,\n        bytes32[] memory flightKeys,\n        uint numberOfInsurance\n        )\n    {\n        return dataContract.fetchAirlineData(airlineAddress);\n    }\n\n    function getFlight\n    (\n        address airlineAddress,\n        string flightName,\n        uint departureTime\n        )\n    public\n    view\n    returns(\n        bool isRegistered,\n        string memory name,\n        uint256 departure,\n        uint8 statusCode,\n        uint256 updatedTimestamp,\n        address airline\n        )\n    {\n        bytes32 flightKey = getFlightKey(airlineAddress, flightName, departureTime);\n        return (\n            flights[flightKey].isRegistered,\n            flights[flightKey].name,\n            flights[flightKey].departure,\n            flights[flightKey].statusCode,\n            flights[flightKey].updatedTimestamp,\n            flights[flightKey].airline\n\n            );\n    }\n\n    function creditInsurees\n    (\n        address airlineAddress,\n        string flightName,\n        uint departureTime,\n        uint _ticketNumber\n        )\n    public\n    view\n    returns(\n        address buyer,\n        address airline,\n        uint value,\n        uint ticketNumber,\n        FlightSuretyData.InsuranceState state\n        )\n    {\n        bytes32 flightKey = getFlightKey(airlineAddress, flightName, departureTime);\n        bytes32 insuranceKey = getInsuranceKey(flightKey, _ticketNumber);\n\n        return dataContract.fetchInsuranceData(insuranceKey);\n    }\n\n    function getInsurance\n    (\n        address airlineAddress,\n        string flightName,\n        uint departureTime,\n        uint _ticketNumber\n        )\n    external\n    view\n    returns(\n        address buyer,\n        address airline,\n        uint value,\n        uint ticketNumber,\n        FlightSuretyData.InsuranceState state\n        )\n    {\n        bytes32 flightKey = getFlightKey(airlineAddress, flightName, departureTime);\n        bytes32 insuranceKey = getInsuranceKey(flightKey, _ticketNumber);\n\n        return dataContract.fetchInsuranceData(insuranceKey);\n    }\n    function getInsuranceKey\n    (\n        bytes32 flightKey,\n        uint ticketNumber\n\n        )\n    internal\n    pure\n    returns(bytes32)\n    {\n        return keccak256(abi.encodePacked(flightKey, ticketNumber));\n    }\n\n\n    function getInsuranceKeysOfPassanger(address _address)\n    public\n    view\n    returns(bytes32[] memory)\n    {\n        return dataContract.fetchPasengerInsurances(_address);\n    }\n\n    function getInsuranceKeysOfFlight\n    (\n        address airlineAddress,\n        string flightName,\n        uint departureTime\n        )\n    public\n    view\n    returns(bytes32[] memory)\n    {\n        bytes32 flightKey = getFlightKey(airlineAddress, flightName, departureTime);\n        return dataContract.fetchFlightInsurances(flightKey);\n    }\n\n    function buyInsurance\n    (\n        address airlineAddress,\n        string flightName,\n        uint256 departure,\n        uint256 ticketNumber\n        )\n    public\n    payable\n    requireIsOperational\n    {\n        require(msg.value > 0, \"Insurance can accept more than 0\");\n        require(msg.value <= 1 ether, \"Insurance can accept less than 1 ether\");\n\n        bytes32 flightKey = getFlightKey(airlineAddress, flightName, departure);\n        bytes32 insuranceKey = getInsuranceKey(flightKey, ticketNumber);\n\n        dataContract.buyInsurance.value(msg.value)(msg.sender, insuranceKey);\n\n        emit InsuranceBought(insuranceKey);\n    }\n\n\n    function payInsurance\n    (\n        address airlineAddress,\n        string flightName,\n        uint256 departure,\n        uint ticketNumber\n        )\n    public\n    requireIsOperational\n    {\n        bytes32 flightKey = getFlightKey(airlineAddress, flightName, departure);\n        bytes32 insuranceKey = getInsuranceKey(flightKey, ticketNumber);\n\n        (\n            address insuree,\n            ,\n            uint value,\n            ,\n            ) = dataContract.fetchInsuranceData(insuranceKey);\n\n        require(insuree == msg.sender, \"You do not own this insurance\");\n\n        dataContract.payInsuree(insuranceKey);\n        emit CreditDrawed(value);\n\n    }\n\n// region ORACLE MANAGEMENT\n\n    // Incremented to add pseudo-randomness at various points\n    uint8 private nonce = 0;    \n\n    // Fee to be paid when registering oracle\n    uint256 public constant REGISTRATION_FEE = 10 ether;\n\n    // Number of oracles that must respond for valid status\n    uint256 private constant MIN_RESPONSES = 3;\n\n\n    struct Oracle {\n        bool isRegistered;\n        uint8[3] indexes;        \n    }\n\n    // Track all registered oracles\n    mapping(address => Oracle) private oracles;\n\n    // Model for responses from oracles\n    struct ResponseInfo {\n        address requester;                              // Account that requested status\n        bool isOpen;                                    // If open, oracle responses are accepted\n        mapping(uint8 => address[]) responses;          // Mapping key is the status code reported\n                                                        // This lets us group responses and identify\n                                                        // the response that majority of the oracles\n                                                    }\n\n    // Track all oracle responses\n    // Key = hash(index, flight, timestamp)\n    mapping(bytes32 => ResponseInfo) private oracleResponses;\n\n    // Event fired each time an oracle submits a response\n    event FlightStatusInfo(address airline, string flight, uint256 timestamp, uint8 status);\n\n    event OracleReport(address airline, string flight, uint256 timestamp, uint8 status);\n\n    // Event fired when flight status request is submitted\n    // Oracles track this and if they have a matching index\n    // they fetch data and submit a response\n    event OracleRequest(uint8 index, address airline, string flight, uint256 timestamp);\n\n\n    // Register an oracle with the contract\n    function registerOracle\n    (\n        )\n    public\n    payable\n    {\n        // Require registration fee\n        require(msg.value >= REGISTRATION_FEE, \"Registration fee is required\");\n\n        uint8[3] memory indexes = generateIndexes(msg.sender);\n\n        oracles[msg.sender] = Oracle({\n            isRegistered: true,\n            indexes: indexes\n            });\n        emit OracleRegistered( msg.sender, oracles[msg.sender].isRegistered);\n    }\n\n    function getMyIndexes\n    (\n        )\n    view\n    public\n    returns(uint8[3])\n    {\n        require(oracles[msg.sender].isRegistered, \"Not registered as an oracle\");\n        return oracles[msg.sender].indexes;\n    }\n\n\n\n\n    // Called by oracle when a response is available to an outstanding request\n    // For the response to be accepted, there must be a pending request that is open\n    // and matches one of the three Indexes randomly assigned to the oracle at the\n    // time of registration (i.e. uninvited oracles are not welcome)\n    function submitOracleResponse\n    (\n        uint8 index,\n        address airline,\n        string flight,\n        uint256 timestamp,\n        uint8 statusCode\n        )\n    public\n    {\n        require((oracles[msg.sender].indexes[0] == index) || (oracles[msg.sender].indexes[1] == index) || (oracles[msg.sender].indexes[2] == index), \"Index does not match oracle request\");\n\n\n        bytes32 key = keccak256(abi.encodePacked(index, airline, flight, timestamp)); \n        require(oracleResponses[key].isOpen, \"Flight or timestamp do not match oracle request\");\n\n        oracleResponses[key].responses[statusCode].push(msg.sender);\n\n        // Information isn't considered verified until at least MIN_RESPONSES\n        // oracles respond with the *** same *** information\n        emit OracleReport(airline, flight, timestamp, statusCode);\n\n\n        if (oracleResponses[key].responses[statusCode].length >= MIN_RESPONSES) {\n            oracleResponses[key].isOpen = false;\n            emit FlightStatusInfo(airline, flight, timestamp, statusCode);\n\n            // Handle flight status as appropriate\n            processFlightStatus(airline, flight, timestamp, statusCode);\n        }\n    }\n\n\n    function getFlightKey\n    (\n        address airline,\n        string flight,\n        uint256 timestamp\n        )\n    pure\n    internal\n    returns(bytes32) \n    {\n        return keccak256(abi.encodePacked(airline, flight, timestamp));\n    }\n\n    // Returns array of three non-duplicating integers from 0-9\n    function generateIndexes\n    (                       \n        address account         \n        )\n    internal\n    returns(uint8[3])\n    {\n        uint8[3] memory indexes;\n        indexes[0] = getRandomIndex(account);\n        \n        indexes[1] = indexes[0];\n        while(indexes[1] == indexes[0]) {\n            indexes[1] = getRandomIndex(account);\n        }\n\n        indexes[2] = indexes[1];\n        while((indexes[2] == indexes[0]) || (indexes[2] == indexes[1])) {\n            indexes[2] = getRandomIndex(account);\n        }\n\n        return indexes;\n    }\n\n    // Returns array of three non-duplicating integers from 0-9\n    function getRandomIndex\n    (\n        address account\n        )\n    internal\n    returns (uint8)\n    {\n        uint8 maxValue = 10;\n\n        // Pseudo random number...the incrementing nonce adds variation\n        uint8 random = uint8(uint256(keccak256(abi.encodePacked(blockhash(block.number - nonce++), account))) % maxValue);\n\n        if (nonce > 250) {\n            nonce = 0;  // Can only fetch blockhashes for last 256 blocks so we adapt\n        }\n\n        return random;\n    }\n\n// endregion\n\n}   \n",
  "sourcePath": "/Users/kevin/Dropbox/works/dev/FlightSurety/contracts/FlightSuretyApp.sol",
  "compiler": {
    "name": "solc",
    "version": "0.4.26+commit.4563c3fc.Emscripten.clang"
  },
  "schemaVersion": "3.0.6",
  "updatedAt": "2019-05-31T07:13:58.329Z",
  "devdoc": {
    "methods": {
      "fundAirline(address)": {
        "details": "Add an airline to the registration queue    "
      },
      "registerAirline(address)": {
        "details": "Add an airline to the registration queue    "
      },
      "registerFlight(uint256,uint256[],string)": {
        "details": "Register a future flight for insuring.    "
      },
      "setOperatingStatus(bool)": {
        "details": "Sets contract operations on/off    * When operational mode is disabled, all write transactions except for this one will fail"
      },
      "voteForAirline(address)": {
        "details": "vote for an airline to be registered     "
      }
    }
  },
  "userdoc": {
    "methods": {
      "isOperational()": {
        "notice": "*****************************************************************************************"
      }
    }
  }
}